{
	"contracts/Chest.sol": {
		"ChestLoC": {
			"abi": [
				{
					"inputs": [
						{
							"internalType": "address",
							"name": "_xpAddress",
							"type": "address"
						},
						{
							"internalType": "address",
							"name": "_inventoryAddress",
							"type": "address"
						}
					],
					"stateMutability": "nonpayable",
					"type": "constructor"
				},
				{
					"inputs": [],
					"name": "inventoryAddress",
					"outputs": [
						{
							"internalType": "address",
							"name": "",
							"type": "address"
						}
					],
					"stateMutability": "view",
					"type": "function"
				},
				{
					"inputs": [
						{
							"internalType": "address",
							"name": "operator",
							"type": "address"
						},
						{
							"internalType": "address",
							"name": "from",
							"type": "address"
						},
						{
							"internalType": "uint256",
							"name": "tokenId",
							"type": "uint256"
						},
						{
							"internalType": "bytes",
							"name": "data",
							"type": "bytes"
						}
					],
					"name": "onERC721Received",
					"outputs": [
						{
							"internalType": "bytes4",
							"name": "",
							"type": "bytes4"
						}
					],
					"stateMutability": "nonpayable",
					"type": "function"
				},
				{
					"inputs": [],
					"name": "xpTokenAddress",
					"outputs": [
						{
							"internalType": "address",
							"name": "",
							"type": "address"
						}
					],
					"stateMutability": "view",
					"type": "function"
				}
			],
			"devdoc": {
				"kind": "dev",
				"methods": {
					"onERC721Received(address,address,uint256,bytes)": {
						"details": "Whenever an {IERC721} `tokenId` token is transferred to this contract via {IERC721-safeTransferFrom} by `operator` from `from`, this function is called. It must return its Solidity selector to confirm the token transfer. If any other value is returned or the interface is not implemented by the recipient, the transfer will be reverted. The selector can be obtained in Solidity with `IERC721Receiver.onERC721Received.selector`."
					}
				},
				"version": 1
			},
			"evm": {
				"assembly": "    /* \"contracts/Chest.sol\":349:1117  contract ChestLoC is IERC721Receiver {... */\n  mstore(0x40, 0x80)\n    /* \"contracts/Chest.sol\":465:614  constructor(address _xpAddress, address _inventoryAddress) {... */\n  callvalue\n  dup1\n  iszero\n  tag_1\n  jumpi\n  0x00\n  dup1\n  revert\ntag_1:\n  pop\n  mload(0x40)\n  sub(codesize, bytecodeSize)\n  dup1\n  bytecodeSize\n  dup4\n  codecopy\n  dup2\n  dup2\n  add\n  0x40\n  mstore\n  dup2\n  add\n  swap1\n  tag_2\n  swap2\n  swap1\n  tag_3\n  jump\t// in\ntag_2:\n    /* \"contracts/Chest.sol\":551:561  _xpAddress */\n  dup2\n    /* \"contracts/Chest.sol\":534:548  xpTokenAddress */\n  0x00\n  dup1\n    /* \"contracts/Chest.sol\":534:561  xpTokenAddress = _xpAddress */\n  0x0100\n  exp\n  dup2\n  sload\n  dup2\n  0xffffffffffffffffffffffffffffffffffffffff\n  mul\n  not\n  and\n  swap1\n  dup4\n  0xffffffffffffffffffffffffffffffffffffffff\n  and\n  mul\n  or\n  swap1\n  sstore\n  pop\n    /* \"contracts/Chest.sol\":590:607  _inventoryAddress */\n  dup1\n    /* \"contracts/Chest.sol\":571:587  inventoryAddress */\n  0x01\n  0x00\n    /* \"contracts/Chest.sol\":571:607  inventoryAddress = _inventoryAddress */\n  0x0100\n  exp\n  dup2\n  sload\n  dup2\n  0xffffffffffffffffffffffffffffffffffffffff\n  mul\n  not\n  and\n  swap1\n  dup4\n  0xffffffffffffffffffffffffffffffffffffffff\n  and\n  mul\n  or\n  swap1\n  sstore\n  pop\n    /* \"contracts/Chest.sol\":465:614  constructor(address _xpAddress, address _inventoryAddress) {... */\n  pop\n  pop\n    /* \"contracts/Chest.sol\":349:1117  contract ChestLoC is IERC721Receiver {... */\n  jump(tag_6)\n    /* \"#utility.yul\":88:205   */\ntag_8:\n    /* \"#utility.yul\":197:198   */\n  0x00\n    /* \"#utility.yul\":194:195   */\n  dup1\n    /* \"#utility.yul\":187:199   */\n  revert\n    /* \"#utility.yul\":334:460   */\ntag_10:\n    /* \"#utility.yul\":371:378   */\n  0x00\n    /* \"#utility.yul\":411:453   */\n  0xffffffffffffffffffffffffffffffffffffffff\n    /* \"#utility.yul\":404:409   */\n  dup3\n    /* \"#utility.yul\":400:454   */\n  and\n    /* \"#utility.yul\":389:454   */\n  swap1\n  pop\n    /* \"#utility.yul\":334:460   */\n  swap2\n  swap1\n  pop\n  jump\t// out\n    /* \"#utility.yul\":466:562   */\ntag_11:\n    /* \"#utility.yul\":503:510   */\n  0x00\n    /* \"#utility.yul\":532:556   */\n  tag_20\n    /* \"#utility.yul\":550:555   */\n  dup3\n    /* \"#utility.yul\":532:556   */\n  tag_10\n  jump\t// in\ntag_20:\n    /* \"#utility.yul\":521:556   */\n  swap1\n  pop\n    /* \"#utility.yul\":466:562   */\n  swap2\n  swap1\n  pop\n  jump\t// out\n    /* \"#utility.yul\":568:690   */\ntag_12:\n    /* \"#utility.yul\":641:665   */\n  tag_22\n    /* \"#utility.yul\":659:664   */\n  dup2\n    /* \"#utility.yul\":641:665   */\n  tag_11\n  jump\t// in\ntag_22:\n    /* \"#utility.yul\":634:639   */\n  dup2\n    /* \"#utility.yul\":631:666   */\n  eq\n    /* \"#utility.yul\":621:684   */\n  tag_23\n  jumpi\n    /* \"#utility.yul\":680:681   */\n  0x00\n    /* \"#utility.yul\":677:678   */\n  dup1\n    /* \"#utility.yul\":670:682   */\n  revert\n    /* \"#utility.yul\":621:684   */\ntag_23:\n    /* \"#utility.yul\":568:690   */\n  pop\n  jump\t// out\n    /* \"#utility.yul\":696:839   */\ntag_13:\n    /* \"#utility.yul\":753:758   */\n  0x00\n    /* \"#utility.yul\":784:790   */\n  dup2\n    /* \"#utility.yul\":778:791   */\n  mload\n    /* \"#utility.yul\":769:791   */\n  swap1\n  pop\n    /* \"#utility.yul\":800:833   */\n  tag_25\n    /* \"#utility.yul\":827:832   */\n  dup2\n    /* \"#utility.yul\":800:833   */\n  tag_12\n  jump\t// in\ntag_25:\n    /* \"#utility.yul\":696:839   */\n  swap3\n  swap2\n  pop\n  pop\n  jump\t// out\n    /* \"#utility.yul\":845:1352   */\ntag_3:\n    /* \"#utility.yul\":924:930   */\n  0x00\n    /* \"#utility.yul\":932:938   */\n  dup1\n    /* \"#utility.yul\":981:983   */\n  0x40\n    /* \"#utility.yul\":969:978   */\n  dup4\n    /* \"#utility.yul\":960:967   */\n  dup6\n    /* \"#utility.yul\":956:979   */\n  sub\n    /* \"#utility.yul\":952:984   */\n  slt\n    /* \"#utility.yul\":949:1068   */\n  iszero\n  tag_27\n  jumpi\n    /* \"#utility.yul\":987:1066   */\n  tag_28\n  tag_8\n  jump\t// in\ntag_28:\n    /* \"#utility.yul\":949:1068   */\ntag_27:\n    /* \"#utility.yul\":1107:1108   */\n  0x00\n    /* \"#utility.yul\":1132:1196   */\n  tag_29\n    /* \"#utility.yul\":1188:1195   */\n  dup6\n    /* \"#utility.yul\":1179:1185   */\n  dup3\n    /* \"#utility.yul\":1168:1177   */\n  dup7\n    /* \"#utility.yul\":1164:1186   */\n  add\n    /* \"#utility.yul\":1132:1196   */\n  tag_13\n  jump\t// in\ntag_29:\n    /* \"#utility.yul\":1122:1196   */\n  swap3\n  pop\n    /* \"#utility.yul\":1078:1206   */\n  pop\n    /* \"#utility.yul\":1245:1247   */\n  0x20\n    /* \"#utility.yul\":1271:1335   */\n  tag_30\n    /* \"#utility.yul\":1327:1334   */\n  dup6\n    /* \"#utility.yul\":1318:1324   */\n  dup3\n    /* \"#utility.yul\":1307:1316   */\n  dup7\n    /* \"#utility.yul\":1303:1325   */\n  add\n    /* \"#utility.yul\":1271:1335   */\n  tag_13\n  jump\t// in\ntag_30:\n    /* \"#utility.yul\":1261:1335   */\n  swap2\n  pop\n    /* \"#utility.yul\":1216:1345   */\n  pop\n    /* \"#utility.yul\":845:1352   */\n  swap3\n  pop\n  swap3\n  swap1\n  pop\n  jump\t// out\n    /* \"contracts/Chest.sol\":349:1117  contract ChestLoC is IERC721Receiver {... */\ntag_6:\n  dataSize(sub_0)\n  dup1\n  dataOffset(sub_0)\n  0x00\n  codecopy\n  0x00\n  return\nstop\n\nsub_0: assembly {\n        /* \"contracts/Chest.sol\":349:1117  contract ChestLoC is IERC721Receiver {... */\n      mstore(0x40, 0x80)\n      callvalue\n      dup1\n      iszero\n      tag_1\n      jumpi\n      0x00\n      dup1\n      revert\n    tag_1:\n      pop\n      jumpi(tag_2, lt(calldatasize, 0x04))\n      shr(0xe0, calldataload(0x00))\n      dup1\n      0x150b7a02\n      eq\n      tag_3\n      jumpi\n      dup1\n      0x2c107c80\n      eq\n      tag_4\n      jumpi\n      dup1\n      0x87b5f114\n      eq\n      tag_5\n      jumpi\n    tag_2:\n      0x00\n      dup1\n      revert\n        /* \"contracts/Chest.sol\":620:1114  function onERC721Received(... */\n    tag_3:\n      tag_6\n      0x04\n      dup1\n      calldatasize\n      sub\n      dup2\n      add\n      swap1\n      tag_7\n      swap2\n      swap1\n      tag_8\n      jump\t// in\n    tag_7:\n      tag_9\n      jump\t// in\n    tag_6:\n      mload(0x40)\n      tag_10\n      swap2\n      swap1\n      tag_11\n      jump\t// in\n    tag_10:\n      mload(0x40)\n      dup1\n      swap2\n      sub\n      swap1\n      return\n        /* \"contracts/Chest.sol\":427:458  address public inventoryAddress */\n    tag_4:\n      tag_12\n      tag_13\n      jump\t// in\n    tag_12:\n      mload(0x40)\n      tag_14\n      swap2\n      swap1\n      tag_15\n      jump\t// in\n    tag_14:\n      mload(0x40)\n      dup1\n      swap2\n      sub\n      swap1\n      return\n        /* \"contracts/Chest.sol\":392:421  address public xpTokenAddress */\n    tag_5:\n      tag_16\n      tag_17\n      jump\t// in\n    tag_16:\n      mload(0x40)\n      tag_18\n      swap2\n      swap1\n      tag_15\n      jump\t// in\n    tag_18:\n      mload(0x40)\n      dup1\n      swap2\n      sub\n      swap1\n      return\n        /* \"contracts/Chest.sol\":620:1114  function onERC721Received(... */\n    tag_9:\n        /* \"contracts/Chest.sol\":785:791  bytes4 */\n      0x00\n        /* \"contracts/Chest.sol\":954:970  inventoryAddress */\n      0x01\n      0x00\n      swap1\n      sload\n      swap1\n      0x0100\n      exp\n      swap1\n      div\n      0xffffffffffffffffffffffffffffffffffffffff\n      and\n        /* \"contracts/Chest.sol\":940:970  msg.sender == inventoryAddress */\n      0xffffffffffffffffffffffffffffffffffffffff\n      and\n        /* \"contracts/Chest.sol\":940:950  msg.sender */\n      caller\n        /* \"contracts/Chest.sol\":940:970  msg.sender == inventoryAddress */\n      0xffffffffffffffffffffffffffffffffffffffff\n      and\n      eq\n        /* \"contracts/Chest.sol\":932:992  require(msg.sender == inventoryAddress, \"NFT not eligible.\") */\n      tag_20\n      jumpi\n      mload(0x40)\n      0x08c379a000000000000000000000000000000000000000000000000000000000\n      dup2\n      mstore\n      0x04\n      add\n      tag_21\n      swap1\n      tag_22\n      jump\t// in\n    tag_21:\n      mload(0x40)\n      dup1\n      swap2\n      sub\n      swap1\n      revert\n    tag_20:\n        /* \"contracts/Chest.sol\":1009:1023  xpTokenAddress */\n      0x00\n      dup1\n      sload\n      swap1\n      0x0100\n      exp\n      swap1\n      div\n      0xffffffffffffffffffffffffffffffffffffffff\n      and\n        /* \"contracts/Chest.sol\":1002:1040  IERC20(xpTokenAddress).mintXPInventory */\n      0xffffffffffffffffffffffffffffffffffffffff\n      and\n      0x35e70616\n        /* \"contracts/Chest.sol\":1041:1045  from */\n      dup6\n        /* \"contracts/Chest.sol\":1047:1059  100 * 10**18 */\n      0x056bc75e2d63100000\n        /* \"contracts/Chest.sol\":1002:1060  IERC20(xpTokenAddress).mintXPInventory(from, 100 * 10**18) */\n      mload(0x40)\n      dup4\n      0xffffffff\n      and\n      0xe0\n      shl\n      dup2\n      mstore\n      0x04\n      add\n      tag_23\n      swap3\n      swap2\n      swap1\n      tag_24\n      jump\t// in\n    tag_23:\n      0x00\n      mload(0x40)\n      dup1\n      dup4\n      sub\n      dup2\n      0x00\n      dup8\n      dup1\n      extcodesize\n      iszero\n      dup1\n      iszero\n      tag_25\n      jumpi\n      0x00\n      dup1\n      revert\n    tag_25:\n      pop\n      gas\n      call\n      iszero\n      dup1\n      iszero\n      tag_27\n      jumpi\n      returndatasize\n      0x00\n      dup1\n      returndatacopy\n      revert(0x00, returndatasize)\n    tag_27:\n      pop\n      pop\n      pop\n      pop\n        /* \"contracts/Chest.sol\":1077:1107  this.onERC721Received.selector */\n      shl(0xe0, 0x150b7a02)\n        /* \"contracts/Chest.sol\":1070:1107  return this.onERC721Received.selector */\n      swap1\n      pop\n        /* \"contracts/Chest.sol\":620:1114  function onERC721Received(... */\n      swap5\n      swap4\n      pop\n      pop\n      pop\n      pop\n      jump\t// out\n        /* \"contracts/Chest.sol\":427:458  address public inventoryAddress */\n    tag_13:\n      0x01\n      0x00\n      swap1\n      sload\n      swap1\n      0x0100\n      exp\n      swap1\n      div\n      0xffffffffffffffffffffffffffffffffffffffff\n      and\n      dup2\n      jump\t// out\n        /* \"contracts/Chest.sol\":392:421  address public xpTokenAddress */\n    tag_17:\n      0x00\n      dup1\n      sload\n      swap1\n      0x0100\n      exp\n      swap1\n      div\n      0xffffffffffffffffffffffffffffffffffffffff\n      and\n      dup2\n      jump\t// out\n        /* \"#utility.yul\":7:82   */\n    tag_28:\n        /* \"#utility.yul\":40:46   */\n      0x00\n        /* \"#utility.yul\":73:75   */\n      0x40\n        /* \"#utility.yul\":67:76   */\n      mload\n        /* \"#utility.yul\":57:76   */\n      swap1\n      pop\n        /* \"#utility.yul\":7:82   */\n      swap1\n      jump\t// out\n        /* \"#utility.yul\":88:205   */\n    tag_29:\n        /* \"#utility.yul\":197:198   */\n      0x00\n        /* \"#utility.yul\":194:195   */\n      dup1\n        /* \"#utility.yul\":187:199   */\n      revert\n        /* \"#utility.yul\":211:328   */\n    tag_30:\n        /* \"#utility.yul\":320:321   */\n      0x00\n        /* \"#utility.yul\":317:318   */\n      dup1\n        /* \"#utility.yul\":310:322   */\n      revert\n        /* \"#utility.yul\":334:460   */\n    tag_31:\n        /* \"#utility.yul\":371:378   */\n      0x00\n        /* \"#utility.yul\":411:453   */\n      0xffffffffffffffffffffffffffffffffffffffff\n        /* \"#utility.yul\":404:409   */\n      dup3\n        /* \"#utility.yul\":400:454   */\n      and\n        /* \"#utility.yul\":389:454   */\n      swap1\n      pop\n        /* \"#utility.yul\":334:460   */\n      swap2\n      swap1\n      pop\n      jump\t// out\n        /* \"#utility.yul\":466:562   */\n    tag_32:\n        /* \"#utility.yul\":503:510   */\n      0x00\n        /* \"#utility.yul\":532:556   */\n      tag_64\n        /* \"#utility.yul\":550:555   */\n      dup3\n        /* \"#utility.yul\":532:556   */\n      tag_31\n      jump\t// in\n    tag_64:\n        /* \"#utility.yul\":521:556   */\n      swap1\n      pop\n        /* \"#utility.yul\":466:562   */\n      swap2\n      swap1\n      pop\n      jump\t// out\n        /* \"#utility.yul\":568:690   */\n    tag_33:\n        /* \"#utility.yul\":641:665   */\n      tag_66\n        /* \"#utility.yul\":659:664   */\n      dup2\n        /* \"#utility.yul\":641:665   */\n      tag_32\n      jump\t// in\n    tag_66:\n        /* \"#utility.yul\":634:639   */\n      dup2\n        /* \"#utility.yul\":631:666   */\n      eq\n        /* \"#utility.yul\":621:684   */\n      tag_67\n      jumpi\n        /* \"#utility.yul\":680:681   */\n      0x00\n        /* \"#utility.yul\":677:678   */\n      dup1\n        /* \"#utility.yul\":670:682   */\n      revert\n        /* \"#utility.yul\":621:684   */\n    tag_67:\n        /* \"#utility.yul\":568:690   */\n      pop\n      jump\t// out\n        /* \"#utility.yul\":696:835   */\n    tag_34:\n        /* \"#utility.yul\":742:747   */\n      0x00\n        /* \"#utility.yul\":780:786   */\n      dup2\n        /* \"#utility.yul\":767:787   */\n      calldataload\n        /* \"#utility.yul\":758:787   */\n      swap1\n      pop\n        /* \"#utility.yul\":796:829   */\n      tag_69\n        /* \"#utility.yul\":823:828   */\n      dup2\n        /* \"#utility.yul\":796:829   */\n      tag_33\n      jump\t// in\n    tag_69:\n        /* \"#utility.yul\":696:835   */\n      swap3\n      swap2\n      pop\n      pop\n      jump\t// out\n        /* \"#utility.yul\":841:918   */\n    tag_35:\n        /* \"#utility.yul\":878:885   */\n      0x00\n        /* \"#utility.yul\":907:912   */\n      dup2\n        /* \"#utility.yul\":896:912   */\n      swap1\n      pop\n        /* \"#utility.yul\":841:918   */\n      swap2\n      swap1\n      pop\n      jump\t// out\n        /* \"#utility.yul\":924:1046   */\n    tag_36:\n        /* \"#utility.yul\":997:1021   */\n      tag_72\n        /* \"#utility.yul\":1015:1020   */\n      dup2\n        /* \"#utility.yul\":997:1021   */\n      tag_35\n      jump\t// in\n    tag_72:\n        /* \"#utility.yul\":990:995   */\n      dup2\n        /* \"#utility.yul\":987:1022   */\n      eq\n        /* \"#utility.yul\":977:1040   */\n      tag_73\n      jumpi\n        /* \"#utility.yul\":1036:1037   */\n      0x00\n        /* \"#utility.yul\":1033:1034   */\n      dup1\n        /* \"#utility.yul\":1026:1038   */\n      revert\n        /* \"#utility.yul\":977:1040   */\n    tag_73:\n        /* \"#utility.yul\":924:1046   */\n      pop\n      jump\t// out\n        /* \"#utility.yul\":1052:1191   */\n    tag_37:\n        /* \"#utility.yul\":1098:1103   */\n      0x00\n        /* \"#utility.yul\":1136:1142   */\n      dup2\n        /* \"#utility.yul\":1123:1143   */\n      calldataload\n        /* \"#utility.yul\":1114:1143   */\n      swap1\n      pop\n        /* \"#utility.yul\":1152:1185   */\n      tag_75\n        /* \"#utility.yul\":1179:1184   */\n      dup2\n        /* \"#utility.yul\":1152:1185   */\n      tag_36\n      jump\t// in\n    tag_75:\n        /* \"#utility.yul\":1052:1191   */\n      swap3\n      swap2\n      pop\n      pop\n      jump\t// out\n        /* \"#utility.yul\":1197:1314   */\n    tag_38:\n        /* \"#utility.yul\":1306:1307   */\n      0x00\n        /* \"#utility.yul\":1303:1304   */\n      dup1\n        /* \"#utility.yul\":1296:1308   */\n      revert\n        /* \"#utility.yul\":1320:1437   */\n    tag_39:\n        /* \"#utility.yul\":1429:1430   */\n      0x00\n        /* \"#utility.yul\":1426:1427   */\n      dup1\n        /* \"#utility.yul\":1419:1431   */\n      revert\n        /* \"#utility.yul\":1443:1545   */\n    tag_40:\n        /* \"#utility.yul\":1484:1490   */\n      0x00\n        /* \"#utility.yul\":1535:1537   */\n      0x1f\n        /* \"#utility.yul\":1531:1538   */\n      not\n        /* \"#utility.yul\":1526:1528   */\n      0x1f\n        /* \"#utility.yul\":1519:1524   */\n      dup4\n        /* \"#utility.yul\":1515:1529   */\n      add\n        /* \"#utility.yul\":1511:1539   */\n      and\n        /* \"#utility.yul\":1501:1539   */\n      swap1\n      pop\n        /* \"#utility.yul\":1443:1545   */\n      swap2\n      swap1\n      pop\n      jump\t// out\n        /* \"#utility.yul\":1551:1731   */\n    tag_41:\n        /* \"#utility.yul\":1599:1676   */\n      0x4e487b7100000000000000000000000000000000000000000000000000000000\n        /* \"#utility.yul\":1596:1597   */\n      0x00\n        /* \"#utility.yul\":1589:1677   */\n      mstore\n        /* \"#utility.yul\":1696:1700   */\n      0x41\n        /* \"#utility.yul\":1693:1694   */\n      0x04\n        /* \"#utility.yul\":1686:1701   */\n      mstore\n        /* \"#utility.yul\":1720:1724   */\n      0x24\n        /* \"#utility.yul\":1717:1718   */\n      0x00\n        /* \"#utility.yul\":1710:1725   */\n      revert\n        /* \"#utility.yul\":1737:2018   */\n    tag_42:\n        /* \"#utility.yul\":1820:1847   */\n      tag_81\n        /* \"#utility.yul\":1842:1846   */\n      dup3\n        /* \"#utility.yul\":1820:1847   */\n      tag_40\n      jump\t// in\n    tag_81:\n        /* \"#utility.yul\":1812:1818   */\n      dup2\n        /* \"#utility.yul\":1808:1848   */\n      add\n        /* \"#utility.yul\":1950:1956   */\n      dup2\n        /* \"#utility.yul\":1938:1948   */\n      dup2\n        /* \"#utility.yul\":1935:1957   */\n      lt\n        /* \"#utility.yul\":1914:1932   */\n      0xffffffffffffffff\n        /* \"#utility.yul\":1902:1912   */\n      dup3\n        /* \"#utility.yul\":1899:1933   */\n      gt\n        /* \"#utility.yul\":1896:1958   */\n      or\n        /* \"#utility.yul\":1893:1981   */\n      iszero\n      tag_82\n      jumpi\n        /* \"#utility.yul\":1961:1979   */\n      tag_83\n      tag_41\n      jump\t// in\n    tag_83:\n        /* \"#utility.yul\":1893:1981   */\n    tag_82:\n        /* \"#utility.yul\":2001:2011   */\n      dup1\n        /* \"#utility.yul\":1997:1999   */\n      0x40\n        /* \"#utility.yul\":1990:2012   */\n      mstore\n        /* \"#utility.yul\":1780:2018   */\n      pop\n        /* \"#utility.yul\":1737:2018   */\n      pop\n      pop\n      jump\t// out\n        /* \"#utility.yul\":2024:2153   */\n    tag_43:\n        /* \"#utility.yul\":2058:2064   */\n      0x00\n        /* \"#utility.yul\":2085:2105   */\n      tag_85\n      tag_28\n      jump\t// in\n    tag_85:\n        /* \"#utility.yul\":2075:2105   */\n      swap1\n      pop\n        /* \"#utility.yul\":2114:2147   */\n      tag_86\n        /* \"#utility.yul\":2142:2146   */\n      dup3\n        /* \"#utility.yul\":2134:2140   */\n      dup3\n        /* \"#utility.yul\":2114:2147   */\n      tag_42\n      jump\t// in\n    tag_86:\n        /* \"#utility.yul\":2024:2153   */\n      swap2\n      swap1\n      pop\n      jump\t// out\n        /* \"#utility.yul\":2159:2466   */\n    tag_44:\n        /* \"#utility.yul\":2220:2224   */\n      0x00\n        /* \"#utility.yul\":2310:2328   */\n      0xffffffffffffffff\n        /* \"#utility.yul\":2302:2308   */\n      dup3\n        /* \"#utility.yul\":2299:2329   */\n      gt\n        /* \"#utility.yul\":2296:2352   */\n      iszero\n      tag_88\n      jumpi\n        /* \"#utility.yul\":2332:2350   */\n      tag_89\n      tag_41\n      jump\t// in\n    tag_89:\n        /* \"#utility.yul\":2296:2352   */\n    tag_88:\n        /* \"#utility.yul\":2370:2399   */\n      tag_90\n        /* \"#utility.yul\":2392:2398   */\n      dup3\n        /* \"#utility.yul\":2370:2399   */\n      tag_40\n      jump\t// in\n    tag_90:\n        /* \"#utility.yul\":2362:2399   */\n      swap1\n      pop\n        /* \"#utility.yul\":2454:2458   */\n      0x20\n        /* \"#utility.yul\":2448:2452   */\n      dup2\n        /* \"#utility.yul\":2444:2459   */\n      add\n        /* \"#utility.yul\":2436:2459   */\n      swap1\n      pop\n        /* \"#utility.yul\":2159:2466   */\n      swap2\n      swap1\n      pop\n      jump\t// out\n        /* \"#utility.yul\":2472:2618   */\n    tag_45:\n        /* \"#utility.yul\":2569:2575   */\n      dup3\n        /* \"#utility.yul\":2564:2567   */\n      dup2\n        /* \"#utility.yul\":2559:2562   */\n      dup4\n        /* \"#utility.yul\":2546:2576   */\n      calldatacopy\n        /* \"#utility.yul\":2610:2611   */\n      0x00\n        /* \"#utility.yul\":2601:2607   */\n      dup4\n        /* \"#utility.yul\":2596:2599   */\n      dup4\n        /* \"#utility.yul\":2592:2608   */\n      add\n        /* \"#utility.yul\":2585:2612   */\n      mstore\n        /* \"#utility.yul\":2472:2618   */\n      pop\n      pop\n      pop\n      jump\t// out\n        /* \"#utility.yul\":2624:3047   */\n    tag_46:\n        /* \"#utility.yul\":2701:2706   */\n      0x00\n        /* \"#utility.yul\":2726:2791   */\n      tag_93\n        /* \"#utility.yul\":2742:2790   */\n      tag_94\n        /* \"#utility.yul\":2783:2789   */\n      dup5\n        /* \"#utility.yul\":2742:2790   */\n      tag_44\n      jump\t// in\n    tag_94:\n        /* \"#utility.yul\":2726:2791   */\n      tag_43\n      jump\t// in\n    tag_93:\n        /* \"#utility.yul\":2717:2791   */\n      swap1\n      pop\n        /* \"#utility.yul\":2814:2820   */\n      dup3\n        /* \"#utility.yul\":2807:2812   */\n      dup2\n        /* \"#utility.yul\":2800:2821   */\n      mstore\n        /* \"#utility.yul\":2852:2856   */\n      0x20\n        /* \"#utility.yul\":2845:2850   */\n      dup2\n        /* \"#utility.yul\":2841:2857   */\n      add\n        /* \"#utility.yul\":2890:2893   */\n      dup5\n        /* \"#utility.yul\":2881:2887   */\n      dup5\n        /* \"#utility.yul\":2876:2879   */\n      dup5\n        /* \"#utility.yul\":2872:2888   */\n      add\n        /* \"#utility.yul\":2869:2894   */\n      gt\n        /* \"#utility.yul\":2866:2978   */\n      iszero\n      tag_95\n      jumpi\n        /* \"#utility.yul\":2897:2976   */\n      tag_96\n      tag_39\n      jump\t// in\n    tag_96:\n        /* \"#utility.yul\":2866:2978   */\n    tag_95:\n        /* \"#utility.yul\":2987:3041   */\n      tag_97\n        /* \"#utility.yul\":3034:3040   */\n      dup5\n        /* \"#utility.yul\":3029:3032   */\n      dup3\n        /* \"#utility.yul\":3024:3027   */\n      dup6\n        /* \"#utility.yul\":2987:3041   */\n      tag_45\n      jump\t// in\n    tag_97:\n        /* \"#utility.yul\":2707:3047   */\n      pop\n        /* \"#utility.yul\":2624:3047   */\n      swap4\n      swap3\n      pop\n      pop\n      pop\n      jump\t// out\n        /* \"#utility.yul\":3066:3404   */\n    tag_47:\n        /* \"#utility.yul\":3121:3126   */\n      0x00\n        /* \"#utility.yul\":3170:3173   */\n      dup3\n        /* \"#utility.yul\":3163:3167   */\n      0x1f\n        /* \"#utility.yul\":3155:3161   */\n      dup4\n        /* \"#utility.yul\":3151:3168   */\n      add\n        /* \"#utility.yul\":3147:3174   */\n      slt\n        /* \"#utility.yul\":3137:3259   */\n      tag_99\n      jumpi\n        /* \"#utility.yul\":3178:3257   */\n      tag_100\n      tag_38\n      jump\t// in\n    tag_100:\n        /* \"#utility.yul\":3137:3259   */\n    tag_99:\n        /* \"#utility.yul\":3295:3301   */\n      dup2\n        /* \"#utility.yul\":3282:3302   */\n      calldataload\n        /* \"#utility.yul\":3320:3398   */\n      tag_101\n        /* \"#utility.yul\":3394:3397   */\n      dup5\n        /* \"#utility.yul\":3386:3392   */\n      dup3\n        /* \"#utility.yul\":3379:3383   */\n      0x20\n        /* \"#utility.yul\":3371:3377   */\n      dup7\n        /* \"#utility.yul\":3367:3384   */\n      add\n        /* \"#utility.yul\":3320:3398   */\n      tag_46\n      jump\t// in\n    tag_101:\n        /* \"#utility.yul\":3311:3398   */\n      swap2\n      pop\n        /* \"#utility.yul\":3127:3404   */\n      pop\n        /* \"#utility.yul\":3066:3404   */\n      swap3\n      swap2\n      pop\n      pop\n      jump\t// out\n        /* \"#utility.yul\":3410:4353   */\n    tag_8:\n        /* \"#utility.yul\":3505:3511   */\n      0x00\n        /* \"#utility.yul\":3513:3519   */\n      dup1\n        /* \"#utility.yul\":3521:3527   */\n      0x00\n        /* \"#utility.yul\":3529:3535   */\n      dup1\n        /* \"#utility.yul\":3578:3581   */\n      0x80\n        /* \"#utility.yul\":3566:3575   */\n      dup6\n        /* \"#utility.yul\":3557:3564   */\n      dup8\n        /* \"#utility.yul\":3553:3576   */\n      sub\n        /* \"#utility.yul\":3549:3582   */\n      slt\n        /* \"#utility.yul\":3546:3666   */\n      iszero\n      tag_103\n      jumpi\n        /* \"#utility.yul\":3585:3664   */\n      tag_104\n      tag_29\n      jump\t// in\n    tag_104:\n        /* \"#utility.yul\":3546:3666   */\n    tag_103:\n        /* \"#utility.yul\":3705:3706   */\n      0x00\n        /* \"#utility.yul\":3730:3783   */\n      tag_105\n        /* \"#utility.yul\":3775:3782   */\n      dup8\n        /* \"#utility.yul\":3766:3772   */\n      dup3\n        /* \"#utility.yul\":3755:3764   */\n      dup9\n        /* \"#utility.yul\":3751:3773   */\n      add\n        /* \"#utility.yul\":3730:3783   */\n      tag_34\n      jump\t// in\n    tag_105:\n        /* \"#utility.yul\":3720:3783   */\n      swap5\n      pop\n        /* \"#utility.yul\":3676:3793   */\n      pop\n        /* \"#utility.yul\":3832:3834   */\n      0x20\n        /* \"#utility.yul\":3858:3911   */\n      tag_106\n        /* \"#utility.yul\":3903:3910   */\n      dup8\n        /* \"#utility.yul\":3894:3900   */\n      dup3\n        /* \"#utility.yul\":3883:3892   */\n      dup9\n        /* \"#utility.yul\":3879:3901   */\n      add\n        /* \"#utility.yul\":3858:3911   */\n      tag_34\n      jump\t// in\n    tag_106:\n        /* \"#utility.yul\":3848:3911   */\n      swap4\n      pop\n        /* \"#utility.yul\":3803:3921   */\n      pop\n        /* \"#utility.yul\":3960:3962   */\n      0x40\n        /* \"#utility.yul\":3986:4039   */\n      tag_107\n        /* \"#utility.yul\":4031:4038   */\n      dup8\n        /* \"#utility.yul\":4022:4028   */\n      dup3\n        /* \"#utility.yul\":4011:4020   */\n      dup9\n        /* \"#utility.yul\":4007:4029   */\n      add\n        /* \"#utility.yul\":3986:4039   */\n      tag_37\n      jump\t// in\n    tag_107:\n        /* \"#utility.yul\":3976:4039   */\n      swap3\n      pop\n        /* \"#utility.yul\":3931:4049   */\n      pop\n        /* \"#utility.yul\":4116:4118   */\n      0x60\n        /* \"#utility.yul\":4105:4114   */\n      dup6\n        /* \"#utility.yul\":4101:4119   */\n      add\n        /* \"#utility.yul\":4088:4120   */\n      calldataload\n        /* \"#utility.yul\":4147:4165   */\n      0xffffffffffffffff\n        /* \"#utility.yul\":4139:4145   */\n      dup2\n        /* \"#utility.yul\":4136:4166   */\n      gt\n        /* \"#utility.yul\":4133:4250   */\n      iszero\n      tag_108\n      jumpi\n        /* \"#utility.yul\":4169:4248   */\n      tag_109\n      tag_30\n      jump\t// in\n    tag_109:\n        /* \"#utility.yul\":4133:4250   */\n    tag_108:\n        /* \"#utility.yul\":4274:4336   */\n      tag_110\n        /* \"#utility.yul\":4328:4335   */\n      dup8\n        /* \"#utility.yul\":4319:4325   */\n      dup3\n        /* \"#utility.yul\":4308:4317   */\n      dup9\n        /* \"#utility.yul\":4304:4326   */\n      add\n        /* \"#utility.yul\":4274:4336   */\n      tag_47\n      jump\t// in\n    tag_110:\n        /* \"#utility.yul\":4264:4336   */\n      swap2\n      pop\n        /* \"#utility.yul\":4059:4346   */\n      pop\n        /* \"#utility.yul\":3410:4353   */\n      swap3\n      swap6\n      swap2\n      swap5\n      pop\n      swap3\n      pop\n      jump\t// out\n        /* \"#utility.yul\":4359:4508   */\n    tag_48:\n        /* \"#utility.yul\":4395:4402   */\n      0x00\n        /* \"#utility.yul\":4435:4501   */\n      0xffffffff00000000000000000000000000000000000000000000000000000000\n        /* \"#utility.yul\":4428:4433   */\n      dup3\n        /* \"#utility.yul\":4424:4502   */\n      and\n        /* \"#utility.yul\":4413:4502   */\n      swap1\n      pop\n        /* \"#utility.yul\":4359:4508   */\n      swap2\n      swap1\n      pop\n      jump\t// out\n        /* \"#utility.yul\":4514:4629   */\n    tag_49:\n        /* \"#utility.yul\":4599:4622   */\n      tag_113\n        /* \"#utility.yul\":4616:4621   */\n      dup2\n        /* \"#utility.yul\":4599:4622   */\n      tag_48\n      jump\t// in\n    tag_113:\n        /* \"#utility.yul\":4594:4597   */\n      dup3\n        /* \"#utility.yul\":4587:4623   */\n      mstore\n        /* \"#utility.yul\":4514:4629   */\n      pop\n      pop\n      jump\t// out\n        /* \"#utility.yul\":4635:4853   */\n    tag_11:\n        /* \"#utility.yul\":4726:4730   */\n      0x00\n        /* \"#utility.yul\":4764:4766   */\n      0x20\n        /* \"#utility.yul\":4753:4762   */\n      dup3\n        /* \"#utility.yul\":4749:4767   */\n      add\n        /* \"#utility.yul\":4741:4767   */\n      swap1\n      pop\n        /* \"#utility.yul\":4777:4846   */\n      tag_115\n        /* \"#utility.yul\":4843:4844   */\n      0x00\n        /* \"#utility.yul\":4832:4841   */\n      dup4\n        /* \"#utility.yul\":4828:4845   */\n      add\n        /* \"#utility.yul\":4819:4825   */\n      dup5\n        /* \"#utility.yul\":4777:4846   */\n      tag_49\n      jump\t// in\n    tag_115:\n        /* \"#utility.yul\":4635:4853   */\n      swap3\n      swap2\n      pop\n      pop\n      jump\t// out\n        /* \"#utility.yul\":4859:4977   */\n    tag_50:\n        /* \"#utility.yul\":4946:4970   */\n      tag_117\n        /* \"#utility.yul\":4964:4969   */\n      dup2\n        /* \"#utility.yul\":4946:4970   */\n      tag_32\n      jump\t// in\n    tag_117:\n        /* \"#utility.yul\":4941:4944   */\n      dup3\n        /* \"#utility.yul\":4934:4971   */\n      mstore\n        /* \"#utility.yul\":4859:4977   */\n      pop\n      pop\n      jump\t// out\n        /* \"#utility.yul\":4983:5205   */\n    tag_15:\n        /* \"#utility.yul\":5076:5080   */\n      0x00\n        /* \"#utility.yul\":5114:5116   */\n      0x20\n        /* \"#utility.yul\":5103:5112   */\n      dup3\n        /* \"#utility.yul\":5099:5117   */\n      add\n        /* \"#utility.yul\":5091:5117   */\n      swap1\n      pop\n        /* \"#utility.yul\":5127:5198   */\n      tag_119\n        /* \"#utility.yul\":5195:5196   */\n      0x00\n        /* \"#utility.yul\":5184:5193   */\n      dup4\n        /* \"#utility.yul\":5180:5197   */\n      add\n        /* \"#utility.yul\":5171:5177   */\n      dup5\n        /* \"#utility.yul\":5127:5198   */\n      tag_50\n      jump\t// in\n    tag_119:\n        /* \"#utility.yul\":4983:5205   */\n      swap3\n      swap2\n      pop\n      pop\n      jump\t// out\n        /* \"#utility.yul\":5211:5380   */\n    tag_51:\n        /* \"#utility.yul\":5295:5306   */\n      0x00\n        /* \"#utility.yul\":5329:5335   */\n      dup3\n        /* \"#utility.yul\":5324:5327   */\n      dup3\n        /* \"#utility.yul\":5317:5336   */\n      mstore\n        /* \"#utility.yul\":5369:5373   */\n      0x20\n        /* \"#utility.yul\":5364:5367   */\n      dup3\n        /* \"#utility.yul\":5360:5374   */\n      add\n        /* \"#utility.yul\":5345:5374   */\n      swap1\n      pop\n        /* \"#utility.yul\":5211:5380   */\n      swap3\n      swap2\n      pop\n      pop\n      jump\t// out\n        /* \"#utility.yul\":5386:5553   */\n    tag_52:\n        /* \"#utility.yul\":5526:5545   */\n      0x4e4654206e6f7420656c696769626c652e000000000000000000000000000000\n        /* \"#utility.yul\":5522:5523   */\n      0x00\n        /* \"#utility.yul\":5514:5520   */\n      dup3\n        /* \"#utility.yul\":5510:5524   */\n      add\n        /* \"#utility.yul\":5503:5546   */\n      mstore\n        /* \"#utility.yul\":5386:5553   */\n      pop\n      jump\t// out\n        /* \"#utility.yul\":5559:5925   */\n    tag_53:\n        /* \"#utility.yul\":5701:5704   */\n      0x00\n        /* \"#utility.yul\":5722:5789   */\n      tag_123\n        /* \"#utility.yul\":5786:5788   */\n      0x11\n        /* \"#utility.yul\":5781:5784   */\n      dup4\n        /* \"#utility.yul\":5722:5789   */\n      tag_51\n      jump\t// in\n    tag_123:\n        /* \"#utility.yul\":5715:5789   */\n      swap2\n      pop\n        /* \"#utility.yul\":5798:5891   */\n      tag_124\n        /* \"#utility.yul\":5887:5890   */\n      dup3\n        /* \"#utility.yul\":5798:5891   */\n      tag_52\n      jump\t// in\n    tag_124:\n        /* \"#utility.yul\":5916:5918   */\n      0x20\n        /* \"#utility.yul\":5911:5914   */\n      dup3\n        /* \"#utility.yul\":5907:5919   */\n      add\n        /* \"#utility.yul\":5900:5919   */\n      swap1\n      pop\n        /* \"#utility.yul\":5559:5925   */\n      swap2\n      swap1\n      pop\n      jump\t// out\n        /* \"#utility.yul\":5931:6350   */\n    tag_22:\n        /* \"#utility.yul\":6097:6101   */\n      0x00\n        /* \"#utility.yul\":6135:6137   */\n      0x20\n        /* \"#utility.yul\":6124:6133   */\n      dup3\n        /* \"#utility.yul\":6120:6138   */\n      add\n        /* \"#utility.yul\":6112:6138   */\n      swap1\n      pop\n        /* \"#utility.yul\":6184:6193   */\n      dup2\n        /* \"#utility.yul\":6178:6182   */\n      dup2\n        /* \"#utility.yul\":6174:6194   */\n      sub\n        /* \"#utility.yul\":6170:6171   */\n      0x00\n        /* \"#utility.yul\":6159:6168   */\n      dup4\n        /* \"#utility.yul\":6155:6172   */\n      add\n        /* \"#utility.yul\":6148:6195   */\n      mstore\n        /* \"#utility.yul\":6212:6343   */\n      tag_126\n        /* \"#utility.yul\":6338:6342   */\n      dup2\n        /* \"#utility.yul\":6212:6343   */\n      tag_53\n      jump\t// in\n    tag_126:\n        /* \"#utility.yul\":6204:6343   */\n      swap1\n      pop\n        /* \"#utility.yul\":5931:6350   */\n      swap2\n      swap1\n      pop\n      jump\t// out\n        /* \"#utility.yul\":6356:6461   */\n    tag_54:\n        /* \"#utility.yul\":6421:6428   */\n      0x00\n        /* \"#utility.yul\":6450:6455   */\n      dup2\n        /* \"#utility.yul\":6439:6455   */\n      swap1\n      pop\n        /* \"#utility.yul\":6356:6461   */\n      swap2\n      swap1\n      pop\n      jump\t// out\n        /* \"#utility.yul\":6467:6527   */\n    tag_55:\n        /* \"#utility.yul\":6495:6498   */\n      0x00\n        /* \"#utility.yul\":6516:6521   */\n      dup2\n        /* \"#utility.yul\":6509:6521   */\n      swap1\n      pop\n        /* \"#utility.yul\":6467:6527   */\n      swap2\n      swap1\n      pop\n      jump\t// out\n        /* \"#utility.yul\":6533:6731   */\n    tag_56:\n        /* \"#utility.yul\":6611:6620   */\n      0x00\n        /* \"#utility.yul\":6644:6725   */\n      tag_130\n        /* \"#utility.yul\":6662:6724   */\n      tag_131\n        /* \"#utility.yul\":6671:6723   */\n      tag_132\n        /* \"#utility.yul\":6717:6722   */\n      dup5\n        /* \"#utility.yul\":6671:6723   */\n      tag_54\n      jump\t// in\n    tag_132:\n        /* \"#utility.yul\":6662:6724   */\n      tag_55\n      jump\t// in\n    tag_131:\n        /* \"#utility.yul\":6644:6725   */\n      tag_35\n      jump\t// in\n    tag_130:\n        /* \"#utility.yul\":6631:6725   */\n      swap1\n      pop\n        /* \"#utility.yul\":6533:6731   */\n      swap2\n      swap1\n      pop\n      jump\t// out\n        /* \"#utility.yul\":6737:6924   */\n    tag_57:\n        /* \"#utility.yul\":6852:6917   */\n      tag_134\n        /* \"#utility.yul\":6911:6916   */\n      dup2\n        /* \"#utility.yul\":6852:6917   */\n      tag_56\n      jump\t// in\n    tag_134:\n        /* \"#utility.yul\":6847:6850   */\n      dup3\n        /* \"#utility.yul\":6840:6918   */\n      mstore\n        /* \"#utility.yul\":6737:6924   */\n      pop\n      pop\n      jump\t// out\n        /* \"#utility.yul\":6930:7318   */\n    tag_24:\n        /* \"#utility.yul\":7079:7083   */\n      0x00\n        /* \"#utility.yul\":7117:7119   */\n      0x40\n        /* \"#utility.yul\":7106:7115   */\n      dup3\n        /* \"#utility.yul\":7102:7120   */\n      add\n        /* \"#utility.yul\":7094:7120   */\n      swap1\n      pop\n        /* \"#utility.yul\":7130:7201   */\n      tag_136\n        /* \"#utility.yul\":7198:7199   */\n      0x00\n        /* \"#utility.yul\":7187:7196   */\n      dup4\n        /* \"#utility.yul\":7183:7200   */\n      add\n        /* \"#utility.yul\":7174:7180   */\n      dup6\n        /* \"#utility.yul\":7130:7201   */\n      tag_50\n      jump\t// in\n    tag_136:\n        /* \"#utility.yul\":7211:7311   */\n      tag_137\n        /* \"#utility.yul\":7307:7309   */\n      0x20\n        /* \"#utility.yul\":7296:7305   */\n      dup4\n        /* \"#utility.yul\":7292:7310   */\n      add\n        /* \"#utility.yul\":7283:7289   */\n      dup5\n        /* \"#utility.yul\":7211:7311   */\n      tag_57\n      jump\t// in\n    tag_137:\n        /* \"#utility.yul\":6930:7318   */\n      swap4\n      swap3\n      pop\n      pop\n      pop\n      jump\t// out\n\n    auxdata: 0xa264697066735822122093fd7ea6fcc028f2d204b1ade42148aa2899605b54360785614a6d5700abfb4a64736f6c63430008140033\n}\n",
				"bytecode": {
					"linkReferences": {},
					"object": "608060405234801561000f575f80fd5b5060405161077538038061077583398181016040528101906100319190610115565b815f806101000a81548173ffffffffffffffffffffffffffffffffffffffff021916908373ffffffffffffffffffffffffffffffffffffffff1602179055508060015f6101000a81548173ffffffffffffffffffffffffffffffffffffffff021916908373ffffffffffffffffffffffffffffffffffffffff1602179055505050610153565b5f80fd5b5f73ffffffffffffffffffffffffffffffffffffffff82169050919050565b5f6100e4826100bb565b9050919050565b6100f4816100da565b81146100fe575f80fd5b50565b5f8151905061010f816100eb565b92915050565b5f806040838503121561012b5761012a6100b7565b5b5f61013885828601610101565b925050602061014985828601610101565b9150509250929050565b610615806101605f395ff3fe608060405234801561000f575f80fd5b506004361061003f575f3560e01c8063150b7a02146100435780632c107c801461007357806387b5f11414610091575b5f80fd5b61005d60048036038101906100589190610403565b6100af565b60405161006a91906104bd565b60405180910390f35b61007b6101e1565b60405161008891906104e5565b60405180910390f35b610099610206565b6040516100a691906104e5565b60405180910390f35b5f60015f9054906101000a900473ffffffffffffffffffffffffffffffffffffffff1673ffffffffffffffffffffffffffffffffffffffff163373ffffffffffffffffffffffffffffffffffffffff161461013f576040517f08c379a000000000000000000000000000000000000000000000000000000000815260040161013690610558565b60405180910390fd5b5f8054906101000a900473ffffffffffffffffffffffffffffffffffffffff1673ffffffffffffffffffffffffffffffffffffffff166335e706168568056bc75e2d631000006040518363ffffffff1660e01b81526004016101a29291906105b8565b5f604051808303815f87803b1580156101b9575f80fd5b505af11580156101cb573d5f803e3d5ffd5b5050505063150b7a0260e01b9050949350505050565b60015f9054906101000a900473ffffffffffffffffffffffffffffffffffffffff1681565b5f8054906101000a900473ffffffffffffffffffffffffffffffffffffffff1681565b5f604051905090565b5f80fd5b5f80fd5b5f73ffffffffffffffffffffffffffffffffffffffff82169050919050565b5f6102638261023a565b9050919050565b61027381610259565b811461027d575f80fd5b50565b5f8135905061028e8161026a565b92915050565b5f819050919050565b6102a681610294565b81146102b0575f80fd5b50565b5f813590506102c18161029d565b92915050565b5f80fd5b5f80fd5b5f601f19601f8301169050919050565b7f4e487b71000000000000000000000000000000000000000000000000000000005f52604160045260245ffd5b610315826102cf565b810181811067ffffffffffffffff82111715610334576103336102df565b5b80604052505050565b5f610346610229565b9050610352828261030c565b919050565b5f67ffffffffffffffff821115610371576103706102df565b5b61037a826102cf565b9050602081019050919050565b828183375f83830152505050565b5f6103a76103a284610357565b61033d565b9050828152602081018484840111156103c3576103c26102cb565b5b6103ce848285610387565b509392505050565b5f82601f8301126103ea576103e96102c7565b5b81356103fa848260208601610395565b91505092915050565b5f805f806080858703121561041b5761041a610232565b5b5f61042887828801610280565b945050602061043987828801610280565b935050604061044a878288016102b3565b925050606085013567ffffffffffffffff81111561046b5761046a610236565b5b610477878288016103d6565b91505092959194509250565b5f7fffffffff0000000000000000000000000000000000000000000000000000000082169050919050565b6104b781610483565b82525050565b5f6020820190506104d05f8301846104ae565b92915050565b6104df81610259565b82525050565b5f6020820190506104f85f8301846104d6565b92915050565b5f82825260208201905092915050565b7f4e4654206e6f7420656c696769626c652e0000000000000000000000000000005f82015250565b5f6105426011836104fe565b915061054d8261050e565b602082019050919050565b5f6020820190508181035f83015261056f81610536565b9050919050565b5f819050919050565b5f819050919050565b5f6105a261059d61059884610576565b61057f565b610294565b9050919050565b6105b281610588565b82525050565b5f6040820190506105cb5f8301856104d6565b6105d860208301846105a9565b939250505056fea264697066735822122093fd7ea6fcc028f2d204b1ade42148aa2899605b54360785614a6d5700abfb4a64736f6c63430008140033",
					"opcodes": "PUSH1 0x80 PUSH1 0x40 MSTORE CALLVALUE DUP1 ISZERO PUSH2 0xF JUMPI PUSH0 DUP1 REVERT JUMPDEST POP PUSH1 0x40 MLOAD PUSH2 0x775 CODESIZE SUB DUP1 PUSH2 0x775 DUP4 CODECOPY DUP2 DUP2 ADD PUSH1 0x40 MSTORE DUP2 ADD SWAP1 PUSH2 0x31 SWAP2 SWAP1 PUSH2 0x115 JUMP JUMPDEST DUP2 PUSH0 DUP1 PUSH2 0x100 EXP DUP2 SLOAD DUP2 PUSH20 0xFFFFFFFFFFFFFFFFFFFFFFFFFFFFFFFFFFFFFFFF MUL NOT AND SWAP1 DUP4 PUSH20 0xFFFFFFFFFFFFFFFFFFFFFFFFFFFFFFFFFFFFFFFF AND MUL OR SWAP1 SSTORE POP DUP1 PUSH1 0x1 PUSH0 PUSH2 0x100 EXP DUP2 SLOAD DUP2 PUSH20 0xFFFFFFFFFFFFFFFFFFFFFFFFFFFFFFFFFFFFFFFF MUL NOT AND SWAP1 DUP4 PUSH20 0xFFFFFFFFFFFFFFFFFFFFFFFFFFFFFFFFFFFFFFFF AND MUL OR SWAP1 SSTORE POP POP POP PUSH2 0x153 JUMP JUMPDEST PUSH0 DUP1 REVERT JUMPDEST PUSH0 PUSH20 0xFFFFFFFFFFFFFFFFFFFFFFFFFFFFFFFFFFFFFFFF DUP3 AND SWAP1 POP SWAP2 SWAP1 POP JUMP JUMPDEST PUSH0 PUSH2 0xE4 DUP3 PUSH2 0xBB JUMP JUMPDEST SWAP1 POP SWAP2 SWAP1 POP JUMP JUMPDEST PUSH2 0xF4 DUP2 PUSH2 0xDA JUMP JUMPDEST DUP2 EQ PUSH2 0xFE JUMPI PUSH0 DUP1 REVERT JUMPDEST POP JUMP JUMPDEST PUSH0 DUP2 MLOAD SWAP1 POP PUSH2 0x10F DUP2 PUSH2 0xEB JUMP JUMPDEST SWAP3 SWAP2 POP POP JUMP JUMPDEST PUSH0 DUP1 PUSH1 0x40 DUP4 DUP6 SUB SLT ISZERO PUSH2 0x12B JUMPI PUSH2 0x12A PUSH2 0xB7 JUMP JUMPDEST JUMPDEST PUSH0 PUSH2 0x138 DUP6 DUP3 DUP7 ADD PUSH2 0x101 JUMP JUMPDEST SWAP3 POP POP PUSH1 0x20 PUSH2 0x149 DUP6 DUP3 DUP7 ADD PUSH2 0x101 JUMP JUMPDEST SWAP2 POP POP SWAP3 POP SWAP3 SWAP1 POP JUMP JUMPDEST PUSH2 0x615 DUP1 PUSH2 0x160 PUSH0 CODECOPY PUSH0 RETURN INVALID PUSH1 0x80 PUSH1 0x40 MSTORE CALLVALUE DUP1 ISZERO PUSH2 0xF JUMPI PUSH0 DUP1 REVERT JUMPDEST POP PUSH1 0x4 CALLDATASIZE LT PUSH2 0x3F JUMPI PUSH0 CALLDATALOAD PUSH1 0xE0 SHR DUP1 PUSH4 0x150B7A02 EQ PUSH2 0x43 JUMPI DUP1 PUSH4 0x2C107C80 EQ PUSH2 0x73 JUMPI DUP1 PUSH4 0x87B5F114 EQ PUSH2 0x91 JUMPI JUMPDEST PUSH0 DUP1 REVERT JUMPDEST PUSH2 0x5D PUSH1 0x4 DUP1 CALLDATASIZE SUB DUP2 ADD SWAP1 PUSH2 0x58 SWAP2 SWAP1 PUSH2 0x403 JUMP JUMPDEST PUSH2 0xAF JUMP JUMPDEST PUSH1 0x40 MLOAD PUSH2 0x6A SWAP2 SWAP1 PUSH2 0x4BD JUMP JUMPDEST PUSH1 0x40 MLOAD DUP1 SWAP2 SUB SWAP1 RETURN JUMPDEST PUSH2 0x7B PUSH2 0x1E1 JUMP JUMPDEST PUSH1 0x40 MLOAD PUSH2 0x88 SWAP2 SWAP1 PUSH2 0x4E5 JUMP JUMPDEST PUSH1 0x40 MLOAD DUP1 SWAP2 SUB SWAP1 RETURN JUMPDEST PUSH2 0x99 PUSH2 0x206 JUMP JUMPDEST PUSH1 0x40 MLOAD PUSH2 0xA6 SWAP2 SWAP1 PUSH2 0x4E5 JUMP JUMPDEST PUSH1 0x40 MLOAD DUP1 SWAP2 SUB SWAP1 RETURN JUMPDEST PUSH0 PUSH1 0x1 PUSH0 SWAP1 SLOAD SWAP1 PUSH2 0x100 EXP SWAP1 DIV PUSH20 0xFFFFFFFFFFFFFFFFFFFFFFFFFFFFFFFFFFFFFFFF AND PUSH20 0xFFFFFFFFFFFFFFFFFFFFFFFFFFFFFFFFFFFFFFFF AND CALLER PUSH20 0xFFFFFFFFFFFFFFFFFFFFFFFFFFFFFFFFFFFFFFFF AND EQ PUSH2 0x13F JUMPI PUSH1 0x40 MLOAD PUSH32 0x8C379A000000000000000000000000000000000000000000000000000000000 DUP2 MSTORE PUSH1 0x4 ADD PUSH2 0x136 SWAP1 PUSH2 0x558 JUMP JUMPDEST PUSH1 0x40 MLOAD DUP1 SWAP2 SUB SWAP1 REVERT JUMPDEST PUSH0 DUP1 SLOAD SWAP1 PUSH2 0x100 EXP SWAP1 DIV PUSH20 0xFFFFFFFFFFFFFFFFFFFFFFFFFFFFFFFFFFFFFFFF AND PUSH20 0xFFFFFFFFFFFFFFFFFFFFFFFFFFFFFFFFFFFFFFFF AND PUSH4 0x35E70616 DUP6 PUSH9 0x56BC75E2D63100000 PUSH1 0x40 MLOAD DUP4 PUSH4 0xFFFFFFFF AND PUSH1 0xE0 SHL DUP2 MSTORE PUSH1 0x4 ADD PUSH2 0x1A2 SWAP3 SWAP2 SWAP1 PUSH2 0x5B8 JUMP JUMPDEST PUSH0 PUSH1 0x40 MLOAD DUP1 DUP4 SUB DUP2 PUSH0 DUP8 DUP1 EXTCODESIZE ISZERO DUP1 ISZERO PUSH2 0x1B9 JUMPI PUSH0 DUP1 REVERT JUMPDEST POP GAS CALL ISZERO DUP1 ISZERO PUSH2 0x1CB JUMPI RETURNDATASIZE PUSH0 DUP1 RETURNDATACOPY RETURNDATASIZE PUSH0 REVERT JUMPDEST POP POP POP POP PUSH4 0x150B7A02 PUSH1 0xE0 SHL SWAP1 POP SWAP5 SWAP4 POP POP POP POP JUMP JUMPDEST PUSH1 0x1 PUSH0 SWAP1 SLOAD SWAP1 PUSH2 0x100 EXP SWAP1 DIV PUSH20 0xFFFFFFFFFFFFFFFFFFFFFFFFFFFFFFFFFFFFFFFF AND DUP2 JUMP JUMPDEST PUSH0 DUP1 SLOAD SWAP1 PUSH2 0x100 EXP SWAP1 DIV PUSH20 0xFFFFFFFFFFFFFFFFFFFFFFFFFFFFFFFFFFFFFFFF AND DUP2 JUMP JUMPDEST PUSH0 PUSH1 0x40 MLOAD SWAP1 POP SWAP1 JUMP JUMPDEST PUSH0 DUP1 REVERT JUMPDEST PUSH0 DUP1 REVERT JUMPDEST PUSH0 PUSH20 0xFFFFFFFFFFFFFFFFFFFFFFFFFFFFFFFFFFFFFFFF DUP3 AND SWAP1 POP SWAP2 SWAP1 POP JUMP JUMPDEST PUSH0 PUSH2 0x263 DUP3 PUSH2 0x23A JUMP JUMPDEST SWAP1 POP SWAP2 SWAP1 POP JUMP JUMPDEST PUSH2 0x273 DUP2 PUSH2 0x259 JUMP JUMPDEST DUP2 EQ PUSH2 0x27D JUMPI PUSH0 DUP1 REVERT JUMPDEST POP JUMP JUMPDEST PUSH0 DUP2 CALLDATALOAD SWAP1 POP PUSH2 0x28E DUP2 PUSH2 0x26A JUMP JUMPDEST SWAP3 SWAP2 POP POP JUMP JUMPDEST PUSH0 DUP2 SWAP1 POP SWAP2 SWAP1 POP JUMP JUMPDEST PUSH2 0x2A6 DUP2 PUSH2 0x294 JUMP JUMPDEST DUP2 EQ PUSH2 0x2B0 JUMPI PUSH0 DUP1 REVERT JUMPDEST POP JUMP JUMPDEST PUSH0 DUP2 CALLDATALOAD SWAP1 POP PUSH2 0x2C1 DUP2 PUSH2 0x29D JUMP JUMPDEST SWAP3 SWAP2 POP POP JUMP JUMPDEST PUSH0 DUP1 REVERT JUMPDEST PUSH0 DUP1 REVERT JUMPDEST PUSH0 PUSH1 0x1F NOT PUSH1 0x1F DUP4 ADD AND SWAP1 POP SWAP2 SWAP1 POP JUMP JUMPDEST PUSH32 0x4E487B7100000000000000000000000000000000000000000000000000000000 PUSH0 MSTORE PUSH1 0x41 PUSH1 0x4 MSTORE PUSH1 0x24 PUSH0 REVERT JUMPDEST PUSH2 0x315 DUP3 PUSH2 0x2CF JUMP JUMPDEST DUP2 ADD DUP2 DUP2 LT PUSH8 0xFFFFFFFFFFFFFFFF DUP3 GT OR ISZERO PUSH2 0x334 JUMPI PUSH2 0x333 PUSH2 0x2DF JUMP JUMPDEST JUMPDEST DUP1 PUSH1 0x40 MSTORE POP POP POP JUMP JUMPDEST PUSH0 PUSH2 0x346 PUSH2 0x229 JUMP JUMPDEST SWAP1 POP PUSH2 0x352 DUP3 DUP3 PUSH2 0x30C JUMP JUMPDEST SWAP2 SWAP1 POP JUMP JUMPDEST PUSH0 PUSH8 0xFFFFFFFFFFFFFFFF DUP3 GT ISZERO PUSH2 0x371 JUMPI PUSH2 0x370 PUSH2 0x2DF JUMP JUMPDEST JUMPDEST PUSH2 0x37A DUP3 PUSH2 0x2CF JUMP JUMPDEST SWAP1 POP PUSH1 0x20 DUP2 ADD SWAP1 POP SWAP2 SWAP1 POP JUMP JUMPDEST DUP3 DUP2 DUP4 CALLDATACOPY PUSH0 DUP4 DUP4 ADD MSTORE POP POP POP JUMP JUMPDEST PUSH0 PUSH2 0x3A7 PUSH2 0x3A2 DUP5 PUSH2 0x357 JUMP JUMPDEST PUSH2 0x33D JUMP JUMPDEST SWAP1 POP DUP3 DUP2 MSTORE PUSH1 0x20 DUP2 ADD DUP5 DUP5 DUP5 ADD GT ISZERO PUSH2 0x3C3 JUMPI PUSH2 0x3C2 PUSH2 0x2CB JUMP JUMPDEST JUMPDEST PUSH2 0x3CE DUP5 DUP3 DUP6 PUSH2 0x387 JUMP JUMPDEST POP SWAP4 SWAP3 POP POP POP JUMP JUMPDEST PUSH0 DUP3 PUSH1 0x1F DUP4 ADD SLT PUSH2 0x3EA JUMPI PUSH2 0x3E9 PUSH2 0x2C7 JUMP JUMPDEST JUMPDEST DUP2 CALLDATALOAD PUSH2 0x3FA DUP5 DUP3 PUSH1 0x20 DUP7 ADD PUSH2 0x395 JUMP JUMPDEST SWAP2 POP POP SWAP3 SWAP2 POP POP JUMP JUMPDEST PUSH0 DUP1 PUSH0 DUP1 PUSH1 0x80 DUP6 DUP8 SUB SLT ISZERO PUSH2 0x41B JUMPI PUSH2 0x41A PUSH2 0x232 JUMP JUMPDEST JUMPDEST PUSH0 PUSH2 0x428 DUP8 DUP3 DUP9 ADD PUSH2 0x280 JUMP JUMPDEST SWAP5 POP POP PUSH1 0x20 PUSH2 0x439 DUP8 DUP3 DUP9 ADD PUSH2 0x280 JUMP JUMPDEST SWAP4 POP POP PUSH1 0x40 PUSH2 0x44A DUP8 DUP3 DUP9 ADD PUSH2 0x2B3 JUMP JUMPDEST SWAP3 POP POP PUSH1 0x60 DUP6 ADD CALLDATALOAD PUSH8 0xFFFFFFFFFFFFFFFF DUP2 GT ISZERO PUSH2 0x46B JUMPI PUSH2 0x46A PUSH2 0x236 JUMP JUMPDEST JUMPDEST PUSH2 0x477 DUP8 DUP3 DUP9 ADD PUSH2 0x3D6 JUMP JUMPDEST SWAP2 POP POP SWAP3 SWAP6 SWAP2 SWAP5 POP SWAP3 POP JUMP JUMPDEST PUSH0 PUSH32 0xFFFFFFFF00000000000000000000000000000000000000000000000000000000 DUP3 AND SWAP1 POP SWAP2 SWAP1 POP JUMP JUMPDEST PUSH2 0x4B7 DUP2 PUSH2 0x483 JUMP JUMPDEST DUP3 MSTORE POP POP JUMP JUMPDEST PUSH0 PUSH1 0x20 DUP3 ADD SWAP1 POP PUSH2 0x4D0 PUSH0 DUP4 ADD DUP5 PUSH2 0x4AE JUMP JUMPDEST SWAP3 SWAP2 POP POP JUMP JUMPDEST PUSH2 0x4DF DUP2 PUSH2 0x259 JUMP JUMPDEST DUP3 MSTORE POP POP JUMP JUMPDEST PUSH0 PUSH1 0x20 DUP3 ADD SWAP1 POP PUSH2 0x4F8 PUSH0 DUP4 ADD DUP5 PUSH2 0x4D6 JUMP JUMPDEST SWAP3 SWAP2 POP POP JUMP JUMPDEST PUSH0 DUP3 DUP3 MSTORE PUSH1 0x20 DUP3 ADD SWAP1 POP SWAP3 SWAP2 POP POP JUMP JUMPDEST PUSH32 0x4E4654206E6F7420656C696769626C652E000000000000000000000000000000 PUSH0 DUP3 ADD MSTORE POP JUMP JUMPDEST PUSH0 PUSH2 0x542 PUSH1 0x11 DUP4 PUSH2 0x4FE JUMP JUMPDEST SWAP2 POP PUSH2 0x54D DUP3 PUSH2 0x50E JUMP JUMPDEST PUSH1 0x20 DUP3 ADD SWAP1 POP SWAP2 SWAP1 POP JUMP JUMPDEST PUSH0 PUSH1 0x20 DUP3 ADD SWAP1 POP DUP2 DUP2 SUB PUSH0 DUP4 ADD MSTORE PUSH2 0x56F DUP2 PUSH2 0x536 JUMP JUMPDEST SWAP1 POP SWAP2 SWAP1 POP JUMP JUMPDEST PUSH0 DUP2 SWAP1 POP SWAP2 SWAP1 POP JUMP JUMPDEST PUSH0 DUP2 SWAP1 POP SWAP2 SWAP1 POP JUMP JUMPDEST PUSH0 PUSH2 0x5A2 PUSH2 0x59D PUSH2 0x598 DUP5 PUSH2 0x576 JUMP JUMPDEST PUSH2 0x57F JUMP JUMPDEST PUSH2 0x294 JUMP JUMPDEST SWAP1 POP SWAP2 SWAP1 POP JUMP JUMPDEST PUSH2 0x5B2 DUP2 PUSH2 0x588 JUMP JUMPDEST DUP3 MSTORE POP POP JUMP JUMPDEST PUSH0 PUSH1 0x40 DUP3 ADD SWAP1 POP PUSH2 0x5CB PUSH0 DUP4 ADD DUP6 PUSH2 0x4D6 JUMP JUMPDEST PUSH2 0x5D8 PUSH1 0x20 DUP4 ADD DUP5 PUSH2 0x5A9 JUMP JUMPDEST SWAP4 SWAP3 POP POP POP JUMP INVALID LOG2 PUSH5 0x6970667358 0x22 SLT KECCAK256 SWAP4 REVERT PUSH31 0xA6FCC028F2D204B1ADE42148AA2899605B54360785614A6D5700ABFB4A6473 PUSH16 0x6C634300081400330000000000000000 "
				},
				"gasEstimates": {
					"creation": {
						"codeDepositCost": "311400",
						"executionCost": "infinite",
						"totalCost": "infinite"
					},
					"external": {
						"inventoryAddress()": "2508",
						"onERC721Received(address,address,uint256,bytes)": "infinite",
						"xpTokenAddress()": "2527"
					}
				},
				"methodIdentifiers": {
					"inventoryAddress()": "2c107c80",
					"onERC721Received(address,address,uint256,bytes)": "150b7a02",
					"xpTokenAddress()": "87b5f114"
				}
			},
			"storageLayout": {
				"storage": [
					{
						"astId": 32,
						"contract": "contracts/Chest.sol:ChestLoC",
						"label": "xpTokenAddress",
						"offset": 0,
						"slot": "0",
						"type": "t_address"
					},
					{
						"astId": 34,
						"contract": "contracts/Chest.sol:ChestLoC",
						"label": "inventoryAddress",
						"offset": 0,
						"slot": "1",
						"type": "t_address"
					}
				],
				"types": {
					"t_address": {
						"encoding": "inplace",
						"label": "address",
						"numberOfBytes": "20"
					}
				}
			},
			"userdoc": {
				"kind": "user",
				"methods": {},
				"version": 1
			}
		}
	}
}