{
	"data": {
		"bytecode": {
			"linkReferences": {},
			"object": "608060405260405180602001604052805f8152506009908162000023919062000430565b5034801562000030575f80fd5b506040518060400160405280600f81526020017f4c616e64206f66204368617365727300000000000000000000000000000000008152506040518060400160405280600781526020017f43686173657273000000000000000000000000000000000000000000000000008152508160029081620000ae919062000430565b508060039081620000c0919062000430565b50620000d1620000fe60201b60201c565b5f819055505050620000f8620000ec6200010260201b60201c565b6200010960201b60201c565b62000514565b5f90565b5f33905090565b5f60085f9054906101000a900473ffffffffffffffffffffffffffffffffffffffff1690508160085f6101000a81548173ffffffffffffffffffffffffffffffffffffffff021916908373ffffffffffffffffffffffffffffffffffffffff1602179055508173ffffffffffffffffffffffffffffffffffffffff168173ffffffffffffffffffffffffffffffffffffffff167f8be0079c531659141344cd1fd0a4f28419497f9722a3daafe3b4186f6b6457e060405160405180910390a35050565b5f81519050919050565b7f4e487b71000000000000000000000000000000000000000000000000000000005f52604160045260245ffd5b7f4e487b71000000000000000000000000000000000000000000000000000000005f52602260045260245ffd5b5f60028204905060018216806200024857607f821691505b6020821081036200025e576200025d62000203565b5b50919050565b5f819050815f5260205f209050919050565b5f6020601f8301049050919050565b5f82821b905092915050565b5f60088302620002c27fffffffffffffffffffffffffffffffffffffffffffffffffffffffffffffffff8262000285565b620002ce868362000285565b95508019841693508086168417925050509392505050565b5f819050919050565b5f819050919050565b5f62000318620003126200030c84620002e6565b620002ef565b620002e6565b9050919050565b5f819050919050565b6200033383620002f8565b6200034b62000342826200031f565b84845462000291565b825550505050565b5f90565b6200036162000353565b6200036e81848462000328565b505050565b5b818110156200039557620003895f8262000357565b60018101905062000374565b5050565b601f821115620003e457620003ae8162000264565b620003b98462000276565b81016020851015620003c9578190505b620003e1620003d88562000276565b83018262000373565b50505b505050565b5f82821c905092915050565b5f620004065f1984600802620003e9565b1980831691505092915050565b5f620004208383620003f5565b9150826002028217905092915050565b6200043b82620001cc565b67ffffffffffffffff811115620004575762000456620001d6565b5b62000463825462000230565b6200047082828562000399565b5f60209050601f831160018114620004a6575f841562000491578287015190505b6200049d858262000413565b8655506200050c565b601f198416620004b68662000264565b5f5b82811015620004df57848901518255600182019150602085019450602081019050620004b8565b86831015620004ff5784890151620004fb601f891682620003f5565b8355505b6001600288020188555050505b505050505050565b61250880620005225f395ff3fe608060405260043610610113575f3560e01c8063715018a61161009f578063b88d4fde11610063578063b88d4fde1461035d578063c30f4a5a14610379578063c87b56dd146103a1578063e985e9c5146103dd578063f2fde38b1461041957610113565b8063715018a6146102af5780638da5cb5b146102c557806395d89b41146102ef578063a0712d6814610319578063a22cb4651461033557610113565b806318160ddd116100e657806318160ddd146101d557806323b872dd146101ff57806342842e0e1461021b5780636352211e1461023757806370a082311461027357610113565b806301ffc9a71461011757806306fdde0314610153578063081812fc1461017d578063095ea7b3146101b9575b5f80fd5b348015610122575f80fd5b5061013d6004803603810190610138919061188b565b610441565b60405161014a91906118d0565b60405180910390f35b34801561015e575f80fd5b506101676104d2565b6040516101749190611973565b60405180910390f35b348015610188575f80fd5b506101a3600480360381019061019e91906119c6565b610562565b6040516101b09190611a30565b60405180910390f35b6101d360048036038101906101ce9190611a73565b6105dc565b005b3480156101e0575f80fd5b506101e961071b565b6040516101f69190611ac0565b60405180910390f35b61021960048036038101906102149190611ad9565b610730565b005b61023560048036038101906102309190611ad9565b610a3e565b005b348015610242575f80fd5b5061025d600480360381019061025891906119c6565b610a5d565b60405161026a9190611a30565b60405180910390f35b34801561027e575f80fd5b5061029960048036038101906102949190611b29565b610a6e565b6040516102a69190611ac0565b60405180910390f35b3480156102ba575f80fd5b506102c3610b23565b005b3480156102d0575f80fd5b506102d9610b36565b6040516102e69190611a30565b60405180910390f35b3480156102fa575f80fd5b50610303610b5e565b6040516103109190611973565b60405180910390f35b610333600480360381019061032e91906119c6565b610bee565b005b348015610340575f80fd5b5061035b60048036038101906103569190611b7e565b610ca8565b005b61037760048036038101906103729190611ce8565b610dae565b005b348015610384575f80fd5b5061039f600480360381019061039a9190611dc5565b610e20565b005b3480156103ac575f80fd5b506103c760048036038101906103c291906119c6565b610e3e565b6040516103d49190611973565b60405180910390f35b3480156103e8575f80fd5b5061040360048036038101906103fe9190611e10565b610ef0565b60405161041091906118d0565b60405180910390f35b348015610424575f80fd5b5061043f600480360381019061043a9190611b29565b610f7e565b005b5f6301ffc9a760e01b827bffffffffffffffffffffffffffffffffffffffffffffffffffffffff1916148061049b57506380ac58cd60e01b827bffffffffffffffffffffffffffffffffffffffffffffffffffffffff1916145b806104cb5750635b5e139f60e01b827bffffffffffffffffffffffffffffffffffffffffffffffffffffffff1916145b9050919050565b6060600280546104e190611e7b565b80601f016020809104026020016040519081016040528092919081815260200182805461050d90611e7b565b80156105585780601f1061052f57610100808354040283529160200191610558565b820191905f5260205f20905b81548152906001019060200180831161053b57829003601f168201915b5050505050905090565b5f61056c82611000565b6105a2576040517fcf4700e400000000000000000000000000000000000000000000000000000000815260040160405180910390fd5b60065f8381526020019081526020015f205f015f9054906101000a900473ffffffffffffffffffffffffffffffffffffffff169050919050565b5f6105e682610a5d565b90508073ffffffffffffffffffffffffffffffffffffffff1661060761105a565b73ffffffffffffffffffffffffffffffffffffffff161461066a576106338161062e61105a565b610ef0565b610669576040517fcfb3b94200000000000000000000000000000000000000000000000000000000815260040160405180910390fd5b5b8260065f8481526020019081526020015f205f015f6101000a81548173ffffffffffffffffffffffffffffffffffffffff021916908373ffffffffffffffffffffffffffffffffffffffff160217905550818373ffffffffffffffffffffffffffffffffffffffff168273ffffffffffffffffffffffffffffffffffffffff167f8c5be1e5ebec7d5bd14f71427d1e84f3dd0314c0f7b2291e5b200ac8c7c3b92560405160405180910390a4505050565b5f610724611061565b6001545f540303905090565b5f61073a82611065565b90508373ffffffffffffffffffffffffffffffffffffffff168173ffffffffffffffffffffffffffffffffffffffff16146107a1576040517fa114810000000000000000000000000000000000000000000000000000000000815260040160405180910390fd5b5f806107ac84611128565b915091506107c281876107bd61105a565b61114b565b61080e576107d7866107d261105a565b610ef0565b61080d576040517f59c896be00000000000000000000000000000000000000000000000000000000815260040160405180910390fd5b5b5f73ffffffffffffffffffffffffffffffffffffffff168573ffffffffffffffffffffffffffffffffffffffff1603610873576040517fea553b3400000000000000000000000000000000000000000000000000000000815260040160405180910390fd5b610880868686600161118e565b801561088a575f82555b60055f8773ffffffffffffffffffffffffffffffffffffffff1673ffffffffffffffffffffffffffffffffffffffff1681526020019081526020015f205f8154600190039190508190555060055f8673ffffffffffffffffffffffffffffffffffffffff1673ffffffffffffffffffffffffffffffffffffffff1681526020019081526020015f205f8154600101919050819055506109528561092e888887611194565b7c0200000000000000000000000000000000000000000000000000000000176111bb565b60045f8681526020019081526020015f20819055505f7c02000000000000000000000000000000000000000000000000000000008416036109ce575f6001850190505f60045f8381526020019081526020015f2054036109cc575f5481146109cb578360045f8381526020019081526020015f20819055505b5b505b838573ffffffffffffffffffffffffffffffffffffffff168773ffffffffffffffffffffffffffffffffffffffff167fddf252ad1be2c89b69c2b068fc378daa952ba7f163c4a11628f55a4df523b3ef60405160405180910390a4610a3686868660016111e5565b505050505050565b610a5883838360405180602001604052805f815250610dae565b505050565b5f610a6782611065565b9050919050565b5f8073ffffffffffffffffffffffffffffffffffffffff168273ffffffffffffffffffffffffffffffffffffffff1603610ad4576040517f8f4eb60400000000000000000000000000000000000000000000000000000000815260040160405180910390fd5b67ffffffffffffffff60055f8473ffffffffffffffffffffffffffffffffffffffff1673ffffffffffffffffffffffffffffffffffffffff1681526020019081526020015f2054169050919050565b610b2b6111eb565b610b345f611269565b565b5f60085f9054906101000a900473ffffffffffffffffffffffffffffffffffffffff16905090565b606060038054610b6d90611e7b565b80601f0160208091040260200160405190810160405280929190818152602001828054610b9990611e7b565b8015610be45780601f10610bbb57610100808354040283529160200191610be4565b820191905f5260205f20905b815481529060010190602001808311610bc757829003601f168201915b5050505050905090565b600a81610bfa3361132c565b610c049190611ed8565b1115610c45576040517f08c379a0000000000000000000000000000000000000000000000000000000008152600401610c3c90611f55565b60405180910390fd5b606481610c5061071b565b610c5a9190611ed8565b1115610c9b576040517f08c379a0000000000000000000000000000000000000000000000000000000008152600401610c9290611fbd565b60405180910390fd5b610ca53382611380565b50565b8060075f610cb461105a565b73ffffffffffffffffffffffffffffffffffffffff1673ffffffffffffffffffffffffffffffffffffffff1681526020019081526020015f205f8473ffffffffffffffffffffffffffffffffffffffff1673ffffffffffffffffffffffffffffffffffffffff1681526020019081526020015f205f6101000a81548160ff0219169083151502179055508173ffffffffffffffffffffffffffffffffffffffff16610d5d61105a565b73ffffffffffffffffffffffffffffffffffffffff167f17307eab39ab6107e8899845ad3d59bd9653f200f220920489ca2b5937696c3183604051610da291906118d0565b60405180910390a35050565b610db9848484610730565b5f8373ffffffffffffffffffffffffffffffffffffffff163b14610e1a57610de38484848461139d565b610e19576040517fd1a57ed600000000000000000000000000000000000000000000000000000000815260040160405180910390fd5b5b50505050565b610e286111eb565b818160099182610e39929190612182565b505050565b6060610e4982611000565b610e7f576040517fa14c4b5000000000000000000000000000000000000000000000000000000000815260040160405180910390fd5b60605f610e8a6114e8565b9050610ea1600185610e9c9190611ed8565b611578565b91505f8183604051602001610eb79291906122d3565b60405160208183030381529060405290505f825103610ee45760405180602001604052805f815250610ee6565b805b9350505050919050565b5f60075f8473ffffffffffffffffffffffffffffffffffffffff1673ffffffffffffffffffffffffffffffffffffffff1681526020019081526020015f205f8373ffffffffffffffffffffffffffffffffffffffff1673ffffffffffffffffffffffffffffffffffffffff1681526020019081526020015f205f9054906101000a900460ff16905092915050565b610f866111eb565b5f73ffffffffffffffffffffffffffffffffffffffff168173ffffffffffffffffffffffffffffffffffffffff1603610ff4576040517f08c379a0000000000000000000000000000000000000000000000000000000008152600401610feb90612371565b60405180910390fd5b610ffd81611269565b50565b5f8161100a611061565b1115801561101857505f5482105b801561105357505f7c010000000000000000000000000000000000000000000000000000000060045f8581526020019081526020015f205416145b9050919050565b5f33905090565b5f90565b5f8082905080611073611061565b116110f1575f548110156110f0575f60045f8381526020019081526020015f205490505f7c01000000000000000000000000000000000000000000000000000000008216036110ee575b5f81036110e45760045f836001900393508381526020019081526020015f205490506110bd565b8092505050611123565b505b5b6040517fdf2d9b4200000000000000000000000000000000000000000000000000000000815260040160405180910390fd5b919050565b5f805f60065f8581526020019081526020015f2090508092508254915050915091565b5f73ffffffffffffffffffffffffffffffffffffffff8316925073ffffffffffffffffffffffffffffffffffffffff821691508382148383141790509392505050565b50505050565b5f8060e883901c905060e86111aa8686846115c7565b62ffffff16901b9150509392505050565b5f73ffffffffffffffffffffffffffffffffffffffff83169250814260a01b178317905092915050565b50505050565b6111f36115cf565b73ffffffffffffffffffffffffffffffffffffffff16611211610b36565b73ffffffffffffffffffffffffffffffffffffffff1614611267576040517f08c379a000000000000000000000000000000000000000000000000000000000815260040161125e906123d9565b60405180910390fd5b565b5f60085f9054906101000a900473ffffffffffffffffffffffffffffffffffffffff1690508160085f6101000a81548173ffffffffffffffffffffffffffffffffffffffff021916908373ffffffffffffffffffffffffffffffffffffffff1602179055508173ffffffffffffffffffffffffffffffffffffffff168173ffffffffffffffffffffffffffffffffffffffff167f8be0079c531659141344cd1fd0a4f28419497f9722a3daafe3b4186f6b6457e060405160405180910390a35050565b5f67ffffffffffffffff604060055f8573ffffffffffffffffffffffffffffffffffffffff1673ffffffffffffffffffffffffffffffffffffffff1681526020019081526020015f2054901c169050919050565b611399828260405180602001604052805f8152506115d6565b5050565b5f8373ffffffffffffffffffffffffffffffffffffffff1663150b7a026113c261105a565b8786866040518563ffffffff1660e01b81526004016113e49493929190612449565b6020604051808303815f875af192505050801561141f57506040513d601f19601f8201168201806040525081019061141c91906124a7565b60015b611495573d805f811461144d576040519150601f19603f3d011682016040523d82523d5f602084013e611452565b606091505b505f81510361148d576040517fd1a57ed600000000000000000000000000000000000000000000000000000000815260040160405180910390fd5b805181602001fd5b63150b7a0260e01b7bffffffffffffffffffffffffffffffffffffffffffffffffffffffff1916817bffffffffffffffffffffffffffffffffffffffffffffffffffffffff191614915050949350505050565b6060600980546114f790611e7b565b80601f016020809104026020016040519081016040528092919081815260200182805461152390611e7b565b801561156e5780601f106115455761010080835404028352916020019161156e565b820191905f5260205f20905b81548152906001019060200180831161155157829003601f168201915b5050505050905090565b606060a060405101806040526020810391505f825281835b6001156115b257600184039350600a81066030018453600a8104905080611590575b50828103602084039350808452505050919050565b5f9392505050565b5f33905090565b6115e0838361166d565b5f8373ffffffffffffffffffffffffffffffffffffffff163b14611668575f805490505f83820390505b61161c5f86838060010194508661139d565b611652576040517fd1a57ed600000000000000000000000000000000000000000000000000000000815260040160405180910390fd5b81811061160a57815f5414611665575f80fd5b50505b505050565b5f805490505f82036116ab576040517fb562e8dd00000000000000000000000000000000000000000000000000000000815260040160405180910390fd5b6116b75f84838561118e565b600160406001901b17820260055f8573ffffffffffffffffffffffffffffffffffffffff1673ffffffffffffffffffffffffffffffffffffffff1681526020019081526020015f205f82825401925050819055506117298361171a5f865f611194565b61172385611816565b176111bb565b60045f8381526020019081526020015f20819055505f80838301905073ffffffffffffffffffffffffffffffffffffffff8516915082825f7fddf252ad1be2c89b69c2b068fc378daa952ba7f163c4a11628f55a4df523b3ef5f80a4600183015b8181146117c35780835f7fddf252ad1be2c89b69c2b068fc378daa952ba7f163c4a11628f55a4df523b3ef5f80a460018101905061178a565b505f82036117fd576040517f2e07630000000000000000000000000000000000000000000000000000000000815260040160405180910390fd5b805f8190555050506118115f8483856111e5565b505050565b5f6001821460e11b9050919050565b5f604051905090565b5f80fd5b5f80fd5b5f7fffffffff0000000000000000000000000000000000000000000000000000000082169050919050565b61186a81611836565b8114611874575f80fd5b50565b5f8135905061188581611861565b92915050565b5f602082840312156118a05761189f61182e565b5b5f6118ad84828501611877565b91505092915050565b5f8115159050919050565b6118ca816118b6565b82525050565b5f6020820190506118e35f8301846118c1565b92915050565b5f81519050919050565b5f82825260208201905092915050565b5f5b83811015611920578082015181840152602081019050611905565b5f8484015250505050565b5f601f19601f8301169050919050565b5f611945826118e9565b61194f81856118f3565b935061195f818560208601611903565b6119688161192b565b840191505092915050565b5f6020820190508181035f83015261198b818461193b565b905092915050565b5f819050919050565b6119a581611993565b81146119af575f80fd5b50565b5f813590506119c08161199c565b92915050565b5f602082840312156119db576119da61182e565b5b5f6119e8848285016119b2565b91505092915050565b5f73ffffffffffffffffffffffffffffffffffffffff82169050919050565b5f611a1a826119f1565b9050919050565b611a2a81611a10565b82525050565b5f602082019050611a435f830184611a21565b92915050565b611a5281611a10565b8114611a5c575f80fd5b50565b5f81359050611a6d81611a49565b92915050565b5f8060408385031215611a8957611a8861182e565b5b5f611a9685828601611a5f565b9250506020611aa7858286016119b2565b9150509250929050565b611aba81611993565b82525050565b5f602082019050611ad35f830184611ab1565b92915050565b5f805f60608486031215611af057611aef61182e565b5b5f611afd86828701611a5f565b9350506020611b0e86828701611a5f565b9250506040611b1f868287016119b2565b9150509250925092565b5f60208284031215611b3e57611b3d61182e565b5b5f611b4b84828501611a5f565b91505092915050565b611b5d816118b6565b8114611b67575f80fd5b50565b5f81359050611b7881611b54565b92915050565b5f8060408385031215611b9457611b9361182e565b5b5f611ba185828601611a5f565b9250506020611bb285828601611b6a565b9150509250929050565b5f80fd5b5f80fd5b7f4e487b71000000000000000000000000000000000000000000000000000000005f52604160045260245ffd5b611bfa8261192b565b810181811067ffffffffffffffff82111715611c1957611c18611bc4565b5b80604052505050565b5f611c2b611825565b9050611c378282611bf1565b919050565b5f67ffffffffffffffff821115611c5657611c55611bc4565b5b611c5f8261192b565b9050602081019050919050565b828183375f83830152505050565b5f611c8c611c8784611c3c565b611c22565b905082815260208101848484011115611ca857611ca7611bc0565b5b611cb3848285611c6c565b509392505050565b5f82601f830112611ccf57611cce611bbc565b5b8135611cdf848260208601611c7a565b91505092915050565b5f805f8060808587031215611d0057611cff61182e565b5b5f611d0d87828801611a5f565b9450506020611d1e87828801611a5f565b9350506040611d2f878288016119b2565b925050606085013567ffffffffffffffff811115611d5057611d4f611832565b5b611d5c87828801611cbb565b91505092959194509250565b5f80fd5b5f80fd5b5f8083601f840112611d8557611d84611bbc565b5b8235905067ffffffffffffffff811115611da257611da1611d68565b5b602083019150836001820283011115611dbe57611dbd611d6c565b5b9250929050565b5f8060208385031215611ddb57611dda61182e565b5b5f83013567ffffffffffffffff811115611df857611df7611832565b5b611e0485828601611d70565b92509250509250929050565b5f8060408385031215611e2657611e2561182e565b5b5f611e3385828601611a5f565b9250506020611e4485828601611a5f565b9150509250929050565b7f4e487b71000000000000000000000000000000000000000000000000000000005f52602260045260245ffd5b5f6002820490506001821680611e9257607f821691505b602082108103611ea557611ea4611e4e565b5b50919050565b7f4e487b71000000000000000000000000000000000000000000000000000000005f52601160045260245ffd5b5f611ee282611993565b9150611eed83611993565b9250828201905080821115611f0557611f04611eab565b5b92915050565b7f4d617820616d6f756e74206d696e7465640000000000000000000000000000005f82015250565b5f611f3f6011836118f3565b9150611f4a82611f0b565b602082019050919050565b5f6020820190508181035f830152611f6c81611f33565b9050919050565b7f4d617820737570706c79207265616368656400000000000000000000000000005f82015250565b5f611fa76012836118f3565b9150611fb282611f73565b602082019050919050565b5f6020820190508181035f830152611fd481611f9b565b9050919050565b5f82905092915050565b5f819050815f5260205f209050919050565b5f6020601f8301049050919050565b5f82821b905092915050565b5f600883026120417fffffffffffffffffffffffffffffffffffffffffffffffffffffffffffffffff82612006565b61204b8683612006565b95508019841693508086168417925050509392505050565b5f819050919050565b5f61208661208161207c84611993565b612063565b611993565b9050919050565b5f819050919050565b61209f8361206c565b6120b36120ab8261208d565b848454612012565b825550505050565b5f90565b6120c76120bb565b6120d2818484612096565b505050565b5b818110156120f5576120ea5f826120bf565b6001810190506120d8565b5050565b601f82111561213a5761210b81611fe5565b61211484611ff7565b81016020851015612123578190505b61213761212f85611ff7565b8301826120d7565b50505b505050565b5f82821c905092915050565b5f61215a5f198460080261213f565b1980831691505092915050565b5f612172838361214b565b9150826002028217905092915050565b61218c8383611fdb565b67ffffffffffffffff8111156121a5576121a4611bc4565b5b6121af8254611e7b565b6121ba8282856120f9565b5f601f8311600181146121e7575f84156121d5578287013590505b6121df8582612167565b865550612246565b601f1984166121f586611fe5565b5f5b8281101561221c578489013582556001820191506020850194506020810190506121f7565b868310156122395784890135612235601f89168261214b565b8355505b6001600288020188555050505b50505050505050565b5f81905092915050565b5f612263826118e9565b61226d818561224f565b935061227d818560208601611903565b80840191505092915050565b7f2e6a736f6e0000000000000000000000000000000000000000000000000000005f82015250565b5f6122bd60058361224f565b91506122c882612289565b600582019050919050565b5f6122de8285612259565b91506122ea8284612259565b91506122f5826122b1565b91508190509392505050565b7f4f776e61626c653a206e6577206f776e657220697320746865207a65726f20615f8201527f6464726573730000000000000000000000000000000000000000000000000000602082015250565b5f61235b6026836118f3565b915061236682612301565b604082019050919050565b5f6020820190508181035f8301526123888161234f565b9050919050565b7f4f776e61626c653a2063616c6c6572206973206e6f7420746865206f776e65725f82015250565b5f6123c36020836118f3565b91506123ce8261238f565b602082019050919050565b5f6020820190508181035f8301526123f0816123b7565b9050919050565b5f81519050919050565b5f82825260208201905092915050565b5f61241b826123f7565b6124258185612401565b9350612435818560208601611903565b61243e8161192b565b840191505092915050565b5f60808201905061245c5f830187611a21565b6124696020830186611a21565b6124766040830185611ab1565b81810360608301526124888184612411565b905095945050505050565b5f815190506124a181611861565b92915050565b5f602082840312156124bc576124bb61182e565b5b5f6124c984828501612493565b9150509291505056fea2646970667358221220b6cfe7d4e0f35529fefe7991b60a1b6a3aede0c6e42a920b59700c3f6f143bba64736f6c63430008140033",
			"opcodes": "PUSH1 0x80 PUSH1 0x40 MSTORE PUSH1 0x40 MLOAD DUP1 PUSH1 0x20 ADD PUSH1 0x40 MSTORE DUP1 PUSH0 DUP2 MSTORE POP PUSH1 0x9 SWAP1 DUP2 PUSH3 0x23 SWAP2 SWAP1 PUSH3 0x430 JUMP JUMPDEST POP CALLVALUE DUP1 ISZERO PUSH3 0x30 JUMPI PUSH0 DUP1 REVERT JUMPDEST POP PUSH1 0x40 MLOAD DUP1 PUSH1 0x40 ADD PUSH1 0x40 MSTORE DUP1 PUSH1 0xF DUP2 MSTORE PUSH1 0x20 ADD PUSH32 0x4C616E64206F6620436861736572730000000000000000000000000000000000 DUP2 MSTORE POP PUSH1 0x40 MLOAD DUP1 PUSH1 0x40 ADD PUSH1 0x40 MSTORE DUP1 PUSH1 0x7 DUP2 MSTORE PUSH1 0x20 ADD PUSH32 0x4368617365727300000000000000000000000000000000000000000000000000 DUP2 MSTORE POP DUP2 PUSH1 0x2 SWAP1 DUP2 PUSH3 0xAE SWAP2 SWAP1 PUSH3 0x430 JUMP JUMPDEST POP DUP1 PUSH1 0x3 SWAP1 DUP2 PUSH3 0xC0 SWAP2 SWAP1 PUSH3 0x430 JUMP JUMPDEST POP PUSH3 0xD1 PUSH3 0xFE PUSH1 0x20 SHL PUSH1 0x20 SHR JUMP JUMPDEST PUSH0 DUP2 SWAP1 SSTORE POP POP POP PUSH3 0xF8 PUSH3 0xEC PUSH3 0x102 PUSH1 0x20 SHL PUSH1 0x20 SHR JUMP JUMPDEST PUSH3 0x109 PUSH1 0x20 SHL PUSH1 0x20 SHR JUMP JUMPDEST PUSH3 0x514 JUMP JUMPDEST PUSH0 SWAP1 JUMP JUMPDEST PUSH0 CALLER SWAP1 POP SWAP1 JUMP JUMPDEST PUSH0 PUSH1 0x8 PUSH0 SWAP1 SLOAD SWAP1 PUSH2 0x100 EXP SWAP1 DIV PUSH20 0xFFFFFFFFFFFFFFFFFFFFFFFFFFFFFFFFFFFFFFFF AND SWAP1 POP DUP2 PUSH1 0x8 PUSH0 PUSH2 0x100 EXP DUP2 SLOAD DUP2 PUSH20 0xFFFFFFFFFFFFFFFFFFFFFFFFFFFFFFFFFFFFFFFF MUL NOT AND SWAP1 DUP4 PUSH20 0xFFFFFFFFFFFFFFFFFFFFFFFFFFFFFFFFFFFFFFFF AND MUL OR SWAP1 SSTORE POP DUP2 PUSH20 0xFFFFFFFFFFFFFFFFFFFFFFFFFFFFFFFFFFFFFFFF AND DUP2 PUSH20 0xFFFFFFFFFFFFFFFFFFFFFFFFFFFFFFFFFFFFFFFF AND PUSH32 0x8BE0079C531659141344CD1FD0A4F28419497F9722A3DAAFE3B4186F6B6457E0 PUSH1 0x40 MLOAD PUSH1 0x40 MLOAD DUP1 SWAP2 SUB SWAP1 LOG3 POP POP JUMP JUMPDEST PUSH0 DUP2 MLOAD SWAP1 POP SWAP2 SWAP1 POP JUMP JUMPDEST PUSH32 0x4E487B7100000000000000000000000000000000000000000000000000000000 PUSH0 MSTORE PUSH1 0x41 PUSH1 0x4 MSTORE PUSH1 0x24 PUSH0 REVERT JUMPDEST PUSH32 0x4E487B7100000000000000000000000000000000000000000000000000000000 PUSH0 MSTORE PUSH1 0x22 PUSH1 0x4 MSTORE PUSH1 0x24 PUSH0 REVERT JUMPDEST PUSH0 PUSH1 0x2 DUP3 DIV SWAP1 POP PUSH1 0x1 DUP3 AND DUP1 PUSH3 0x248 JUMPI PUSH1 0x7F DUP3 AND SWAP2 POP JUMPDEST PUSH1 0x20 DUP3 LT DUP2 SUB PUSH3 0x25E JUMPI PUSH3 0x25D PUSH3 0x203 JUMP JUMPDEST JUMPDEST POP SWAP2 SWAP1 POP JUMP JUMPDEST PUSH0 DUP2 SWAP1 POP DUP2 PUSH0 MSTORE PUSH1 0x20 PUSH0 KECCAK256 SWAP1 POP SWAP2 SWAP1 POP JUMP JUMPDEST PUSH0 PUSH1 0x20 PUSH1 0x1F DUP4 ADD DIV SWAP1 POP SWAP2 SWAP1 POP JUMP JUMPDEST PUSH0 DUP3 DUP3 SHL SWAP1 POP SWAP3 SWAP2 POP POP JUMP JUMPDEST PUSH0 PUSH1 0x8 DUP4 MUL PUSH3 0x2C2 PUSH32 0xFFFFFFFFFFFFFFFFFFFFFFFFFFFFFFFFFFFFFFFFFFFFFFFFFFFFFFFFFFFFFFFF DUP3 PUSH3 0x285 JUMP JUMPDEST PUSH3 0x2CE DUP7 DUP4 PUSH3 0x285 JUMP JUMPDEST SWAP6 POP DUP1 NOT DUP5 AND SWAP4 POP DUP1 DUP7 AND DUP5 OR SWAP3 POP POP POP SWAP4 SWAP3 POP POP POP JUMP JUMPDEST PUSH0 DUP2 SWAP1 POP SWAP2 SWAP1 POP JUMP JUMPDEST PUSH0 DUP2 SWAP1 POP SWAP2 SWAP1 POP JUMP JUMPDEST PUSH0 PUSH3 0x318 PUSH3 0x312 PUSH3 0x30C DUP5 PUSH3 0x2E6 JUMP JUMPDEST PUSH3 0x2EF JUMP JUMPDEST PUSH3 0x2E6 JUMP JUMPDEST SWAP1 POP SWAP2 SWAP1 POP JUMP JUMPDEST PUSH0 DUP2 SWAP1 POP SWAP2 SWAP1 POP JUMP JUMPDEST PUSH3 0x333 DUP4 PUSH3 0x2F8 JUMP JUMPDEST PUSH3 0x34B PUSH3 0x342 DUP3 PUSH3 0x31F JUMP JUMPDEST DUP5 DUP5 SLOAD PUSH3 0x291 JUMP JUMPDEST DUP3 SSTORE POP POP POP POP JUMP JUMPDEST PUSH0 SWAP1 JUMP JUMPDEST PUSH3 0x361 PUSH3 0x353 JUMP JUMPDEST PUSH3 0x36E DUP2 DUP5 DUP5 PUSH3 0x328 JUMP JUMPDEST POP POP POP JUMP JUMPDEST JUMPDEST DUP2 DUP2 LT ISZERO PUSH3 0x395 JUMPI PUSH3 0x389 PUSH0 DUP3 PUSH3 0x357 JUMP JUMPDEST PUSH1 0x1 DUP2 ADD SWAP1 POP PUSH3 0x374 JUMP JUMPDEST POP POP JUMP JUMPDEST PUSH1 0x1F DUP3 GT ISZERO PUSH3 0x3E4 JUMPI PUSH3 0x3AE DUP2 PUSH3 0x264 JUMP JUMPDEST PUSH3 0x3B9 DUP5 PUSH3 0x276 JUMP JUMPDEST DUP2 ADD PUSH1 0x20 DUP6 LT ISZERO PUSH3 0x3C9 JUMPI DUP2 SWAP1 POP JUMPDEST PUSH3 0x3E1 PUSH3 0x3D8 DUP6 PUSH3 0x276 JUMP JUMPDEST DUP4 ADD DUP3 PUSH3 0x373 JUMP JUMPDEST POP POP JUMPDEST POP POP POP JUMP JUMPDEST PUSH0 DUP3 DUP3 SHR SWAP1 POP SWAP3 SWAP2 POP POP JUMP JUMPDEST PUSH0 PUSH3 0x406 PUSH0 NOT DUP5 PUSH1 0x8 MUL PUSH3 0x3E9 JUMP JUMPDEST NOT DUP1 DUP4 AND SWAP2 POP POP SWAP3 SWAP2 POP POP JUMP JUMPDEST PUSH0 PUSH3 0x420 DUP4 DUP4 PUSH3 0x3F5 JUMP JUMPDEST SWAP2 POP DUP3 PUSH1 0x2 MUL DUP3 OR SWAP1 POP SWAP3 SWAP2 POP POP JUMP JUMPDEST PUSH3 0x43B DUP3 PUSH3 0x1CC JUMP JUMPDEST PUSH8 0xFFFFFFFFFFFFFFFF DUP2 GT ISZERO PUSH3 0x457 JUMPI PUSH3 0x456 PUSH3 0x1D6 JUMP JUMPDEST JUMPDEST PUSH3 0x463 DUP3 SLOAD PUSH3 0x230 JUMP JUMPDEST PUSH3 0x470 DUP3 DUP3 DUP6 PUSH3 0x399 JUMP JUMPDEST PUSH0 PUSH1 0x20 SWAP1 POP PUSH1 0x1F DUP4 GT PUSH1 0x1 DUP2 EQ PUSH3 0x4A6 JUMPI PUSH0 DUP5 ISZERO PUSH3 0x491 JUMPI DUP3 DUP8 ADD MLOAD SWAP1 POP JUMPDEST PUSH3 0x49D DUP6 DUP3 PUSH3 0x413 JUMP JUMPDEST DUP7 SSTORE POP PUSH3 0x50C JUMP JUMPDEST PUSH1 0x1F NOT DUP5 AND PUSH3 0x4B6 DUP7 PUSH3 0x264 JUMP JUMPDEST PUSH0 JUMPDEST DUP3 DUP2 LT ISZERO PUSH3 0x4DF JUMPI DUP5 DUP10 ADD MLOAD DUP3 SSTORE PUSH1 0x1 DUP3 ADD SWAP2 POP PUSH1 0x20 DUP6 ADD SWAP5 POP PUSH1 0x20 DUP2 ADD SWAP1 POP PUSH3 0x4B8 JUMP JUMPDEST DUP7 DUP4 LT ISZERO PUSH3 0x4FF JUMPI DUP5 DUP10 ADD MLOAD PUSH3 0x4FB PUSH1 0x1F DUP10 AND DUP3 PUSH3 0x3F5 JUMP JUMPDEST DUP4 SSTORE POP JUMPDEST PUSH1 0x1 PUSH1 0x2 DUP9 MUL ADD DUP9 SSTORE POP POP POP JUMPDEST POP POP POP POP POP POP JUMP JUMPDEST PUSH2 0x2508 DUP1 PUSH3 0x522 PUSH0 CODECOPY PUSH0 RETURN INVALID PUSH1 0x80 PUSH1 0x40 MSTORE PUSH1 0x4 CALLDATASIZE LT PUSH2 0x113 JUMPI PUSH0 CALLDATALOAD PUSH1 0xE0 SHR DUP1 PUSH4 0x715018A6 GT PUSH2 0x9F JUMPI DUP1 PUSH4 0xB88D4FDE GT PUSH2 0x63 JUMPI DUP1 PUSH4 0xB88D4FDE EQ PUSH2 0x35D JUMPI DUP1 PUSH4 0xC30F4A5A EQ PUSH2 0x379 JUMPI DUP1 PUSH4 0xC87B56DD EQ PUSH2 0x3A1 JUMPI DUP1 PUSH4 0xE985E9C5 EQ PUSH2 0x3DD JUMPI DUP1 PUSH4 0xF2FDE38B EQ PUSH2 0x419 JUMPI PUSH2 0x113 JUMP JUMPDEST DUP1 PUSH4 0x715018A6 EQ PUSH2 0x2AF JUMPI DUP1 PUSH4 0x8DA5CB5B EQ PUSH2 0x2C5 JUMPI DUP1 PUSH4 0x95D89B41 EQ PUSH2 0x2EF JUMPI DUP1 PUSH4 0xA0712D68 EQ PUSH2 0x319 JUMPI DUP1 PUSH4 0xA22CB465 EQ PUSH2 0x335 JUMPI PUSH2 0x113 JUMP JUMPDEST DUP1 PUSH4 0x18160DDD GT PUSH2 0xE6 JUMPI DUP1 PUSH4 0x18160DDD EQ PUSH2 0x1D5 JUMPI DUP1 PUSH4 0x23B872DD EQ PUSH2 0x1FF JUMPI DUP1 PUSH4 0x42842E0E EQ PUSH2 0x21B JUMPI DUP1 PUSH4 0x6352211E EQ PUSH2 0x237 JUMPI DUP1 PUSH4 0x70A08231 EQ PUSH2 0x273 JUMPI PUSH2 0x113 JUMP JUMPDEST DUP1 PUSH4 0x1FFC9A7 EQ PUSH2 0x117 JUMPI DUP1 PUSH4 0x6FDDE03 EQ PUSH2 0x153 JUMPI DUP1 PUSH4 0x81812FC EQ PUSH2 0x17D JUMPI DUP1 PUSH4 0x95EA7B3 EQ PUSH2 0x1B9 JUMPI JUMPDEST PUSH0 DUP1 REVERT JUMPDEST CALLVALUE DUP1 ISZERO PUSH2 0x122 JUMPI PUSH0 DUP1 REVERT JUMPDEST POP PUSH2 0x13D PUSH1 0x4 DUP1 CALLDATASIZE SUB DUP2 ADD SWAP1 PUSH2 0x138 SWAP2 SWAP1 PUSH2 0x188B JUMP JUMPDEST PUSH2 0x441 JUMP JUMPDEST PUSH1 0x40 MLOAD PUSH2 0x14A SWAP2 SWAP1 PUSH2 0x18D0 JUMP JUMPDEST PUSH1 0x40 MLOAD DUP1 SWAP2 SUB SWAP1 RETURN JUMPDEST CALLVALUE DUP1 ISZERO PUSH2 0x15E JUMPI PUSH0 DUP1 REVERT JUMPDEST POP PUSH2 0x167 PUSH2 0x4D2 JUMP JUMPDEST PUSH1 0x40 MLOAD PUSH2 0x174 SWAP2 SWAP1 PUSH2 0x1973 JUMP JUMPDEST PUSH1 0x40 MLOAD DUP1 SWAP2 SUB SWAP1 RETURN JUMPDEST CALLVALUE DUP1 ISZERO PUSH2 0x188 JUMPI PUSH0 DUP1 REVERT JUMPDEST POP PUSH2 0x1A3 PUSH1 0x4 DUP1 CALLDATASIZE SUB DUP2 ADD SWAP1 PUSH2 0x19E SWAP2 SWAP1 PUSH2 0x19C6 JUMP JUMPDEST PUSH2 0x562 JUMP JUMPDEST PUSH1 0x40 MLOAD PUSH2 0x1B0 SWAP2 SWAP1 PUSH2 0x1A30 JUMP JUMPDEST PUSH1 0x40 MLOAD DUP1 SWAP2 SUB SWAP1 RETURN JUMPDEST PUSH2 0x1D3 PUSH1 0x4 DUP1 CALLDATASIZE SUB DUP2 ADD SWAP1 PUSH2 0x1CE SWAP2 SWAP1 PUSH2 0x1A73 JUMP JUMPDEST PUSH2 0x5DC JUMP JUMPDEST STOP JUMPDEST CALLVALUE DUP1 ISZERO PUSH2 0x1E0 JUMPI PUSH0 DUP1 REVERT JUMPDEST POP PUSH2 0x1E9 PUSH2 0x71B JUMP JUMPDEST PUSH1 0x40 MLOAD PUSH2 0x1F6 SWAP2 SWAP1 PUSH2 0x1AC0 JUMP JUMPDEST PUSH1 0x40 MLOAD DUP1 SWAP2 SUB SWAP1 RETURN JUMPDEST PUSH2 0x219 PUSH1 0x4 DUP1 CALLDATASIZE SUB DUP2 ADD SWAP1 PUSH2 0x214 SWAP2 SWAP1 PUSH2 0x1AD9 JUMP JUMPDEST PUSH2 0x730 JUMP JUMPDEST STOP JUMPDEST PUSH2 0x235 PUSH1 0x4 DUP1 CALLDATASIZE SUB DUP2 ADD SWAP1 PUSH2 0x230 SWAP2 SWAP1 PUSH2 0x1AD9 JUMP JUMPDEST PUSH2 0xA3E JUMP JUMPDEST STOP JUMPDEST CALLVALUE DUP1 ISZERO PUSH2 0x242 JUMPI PUSH0 DUP1 REVERT JUMPDEST POP PUSH2 0x25D PUSH1 0x4 DUP1 CALLDATASIZE SUB DUP2 ADD SWAP1 PUSH2 0x258 SWAP2 SWAP1 PUSH2 0x19C6 JUMP JUMPDEST PUSH2 0xA5D JUMP JUMPDEST PUSH1 0x40 MLOAD PUSH2 0x26A SWAP2 SWAP1 PUSH2 0x1A30 JUMP JUMPDEST PUSH1 0x40 MLOAD DUP1 SWAP2 SUB SWAP1 RETURN JUMPDEST CALLVALUE DUP1 ISZERO PUSH2 0x27E JUMPI PUSH0 DUP1 REVERT JUMPDEST POP PUSH2 0x299 PUSH1 0x4 DUP1 CALLDATASIZE SUB DUP2 ADD SWAP1 PUSH2 0x294 SWAP2 SWAP1 PUSH2 0x1B29 JUMP JUMPDEST PUSH2 0xA6E JUMP JUMPDEST PUSH1 0x40 MLOAD PUSH2 0x2A6 SWAP2 SWAP1 PUSH2 0x1AC0 JUMP JUMPDEST PUSH1 0x40 MLOAD DUP1 SWAP2 SUB SWAP1 RETURN JUMPDEST CALLVALUE DUP1 ISZERO PUSH2 0x2BA JUMPI PUSH0 DUP1 REVERT JUMPDEST POP PUSH2 0x2C3 PUSH2 0xB23 JUMP JUMPDEST STOP JUMPDEST CALLVALUE DUP1 ISZERO PUSH2 0x2D0 JUMPI PUSH0 DUP1 REVERT JUMPDEST POP PUSH2 0x2D9 PUSH2 0xB36 JUMP JUMPDEST PUSH1 0x40 MLOAD PUSH2 0x2E6 SWAP2 SWAP1 PUSH2 0x1A30 JUMP JUMPDEST PUSH1 0x40 MLOAD DUP1 SWAP2 SUB SWAP1 RETURN JUMPDEST CALLVALUE DUP1 ISZERO PUSH2 0x2FA JUMPI PUSH0 DUP1 REVERT JUMPDEST POP PUSH2 0x303 PUSH2 0xB5E JUMP JUMPDEST PUSH1 0x40 MLOAD PUSH2 0x310 SWAP2 SWAP1 PUSH2 0x1973 JUMP JUMPDEST PUSH1 0x40 MLOAD DUP1 SWAP2 SUB SWAP1 RETURN JUMPDEST PUSH2 0x333 PUSH1 0x4 DUP1 CALLDATASIZE SUB DUP2 ADD SWAP1 PUSH2 0x32E SWAP2 SWAP1 PUSH2 0x19C6 JUMP JUMPDEST PUSH2 0xBEE JUMP JUMPDEST STOP JUMPDEST CALLVALUE DUP1 ISZERO PUSH2 0x340 JUMPI PUSH0 DUP1 REVERT JUMPDEST POP PUSH2 0x35B PUSH1 0x4 DUP1 CALLDATASIZE SUB DUP2 ADD SWAP1 PUSH2 0x356 SWAP2 SWAP1 PUSH2 0x1B7E JUMP JUMPDEST PUSH2 0xCA8 JUMP JUMPDEST STOP JUMPDEST PUSH2 0x377 PUSH1 0x4 DUP1 CALLDATASIZE SUB DUP2 ADD SWAP1 PUSH2 0x372 SWAP2 SWAP1 PUSH2 0x1CE8 JUMP JUMPDEST PUSH2 0xDAE JUMP JUMPDEST STOP JUMPDEST CALLVALUE DUP1 ISZERO PUSH2 0x384 JUMPI PUSH0 DUP1 REVERT JUMPDEST POP PUSH2 0x39F PUSH1 0x4 DUP1 CALLDATASIZE SUB DUP2 ADD SWAP1 PUSH2 0x39A SWAP2 SWAP1 PUSH2 0x1DC5 JUMP JUMPDEST PUSH2 0xE20 JUMP JUMPDEST STOP JUMPDEST CALLVALUE DUP1 ISZERO PUSH2 0x3AC JUMPI PUSH0 DUP1 REVERT JUMPDEST POP PUSH2 0x3C7 PUSH1 0x4 DUP1 CALLDATASIZE SUB DUP2 ADD SWAP1 PUSH2 0x3C2 SWAP2 SWAP1 PUSH2 0x19C6 JUMP JUMPDEST PUSH2 0xE3E JUMP JUMPDEST PUSH1 0x40 MLOAD PUSH2 0x3D4 SWAP2 SWAP1 PUSH2 0x1973 JUMP JUMPDEST PUSH1 0x40 MLOAD DUP1 SWAP2 SUB SWAP1 RETURN JUMPDEST CALLVALUE DUP1 ISZERO PUSH2 0x3E8 JUMPI PUSH0 DUP1 REVERT JUMPDEST POP PUSH2 0x403 PUSH1 0x4 DUP1 CALLDATASIZE SUB DUP2 ADD SWAP1 PUSH2 0x3FE SWAP2 SWAP1 PUSH2 0x1E10 JUMP JUMPDEST PUSH2 0xEF0 JUMP JUMPDEST PUSH1 0x40 MLOAD PUSH2 0x410 SWAP2 SWAP1 PUSH2 0x18D0 JUMP JUMPDEST PUSH1 0x40 MLOAD DUP1 SWAP2 SUB SWAP1 RETURN JUMPDEST CALLVALUE DUP1 ISZERO PUSH2 0x424 JUMPI PUSH0 DUP1 REVERT JUMPDEST POP PUSH2 0x43F PUSH1 0x4 DUP1 CALLDATASIZE SUB DUP2 ADD SWAP1 PUSH2 0x43A SWAP2 SWAP1 PUSH2 0x1B29 JUMP JUMPDEST PUSH2 0xF7E JUMP JUMPDEST STOP JUMPDEST PUSH0 PUSH4 0x1FFC9A7 PUSH1 0xE0 SHL DUP3 PUSH28 0xFFFFFFFFFFFFFFFFFFFFFFFFFFFFFFFFFFFFFFFFFFFFFFFFFFFFFFFF NOT AND EQ DUP1 PUSH2 0x49B JUMPI POP PUSH4 0x80AC58CD PUSH1 0xE0 SHL DUP3 PUSH28 0xFFFFFFFFFFFFFFFFFFFFFFFFFFFFFFFFFFFFFFFFFFFFFFFFFFFFFFFF NOT AND EQ JUMPDEST DUP1 PUSH2 0x4CB JUMPI POP PUSH4 0x5B5E139F PUSH1 0xE0 SHL DUP3 PUSH28 0xFFFFFFFFFFFFFFFFFFFFFFFFFFFFFFFFFFFFFFFFFFFFFFFFFFFFFFFF NOT AND EQ JUMPDEST SWAP1 POP SWAP2 SWAP1 POP JUMP JUMPDEST PUSH1 0x60 PUSH1 0x2 DUP1 SLOAD PUSH2 0x4E1 SWAP1 PUSH2 0x1E7B JUMP JUMPDEST DUP1 PUSH1 0x1F ADD PUSH1 0x20 DUP1 SWAP2 DIV MUL PUSH1 0x20 ADD PUSH1 0x40 MLOAD SWAP1 DUP2 ADD PUSH1 0x40 MSTORE DUP1 SWAP3 SWAP2 SWAP1 DUP2 DUP2 MSTORE PUSH1 0x20 ADD DUP3 DUP1 SLOAD PUSH2 0x50D SWAP1 PUSH2 0x1E7B JUMP JUMPDEST DUP1 ISZERO PUSH2 0x558 JUMPI DUP1 PUSH1 0x1F LT PUSH2 0x52F JUMPI PUSH2 0x100 DUP1 DUP4 SLOAD DIV MUL DUP4 MSTORE SWAP2 PUSH1 0x20 ADD SWAP2 PUSH2 0x558 JUMP JUMPDEST DUP3 ADD SWAP2 SWAP1 PUSH0 MSTORE PUSH1 0x20 PUSH0 KECCAK256 SWAP1 JUMPDEST DUP2 SLOAD DUP2 MSTORE SWAP1 PUSH1 0x1 ADD SWAP1 PUSH1 0x20 ADD DUP1 DUP4 GT PUSH2 0x53B JUMPI DUP3 SWAP1 SUB PUSH1 0x1F AND DUP3 ADD SWAP2 JUMPDEST POP POP POP POP POP SWAP1 POP SWAP1 JUMP JUMPDEST PUSH0 PUSH2 0x56C DUP3 PUSH2 0x1000 JUMP JUMPDEST PUSH2 0x5A2 JUMPI PUSH1 0x40 MLOAD PUSH32 0xCF4700E400000000000000000000000000000000000000000000000000000000 DUP2 MSTORE PUSH1 0x4 ADD PUSH1 0x40 MLOAD DUP1 SWAP2 SUB SWAP1 REVERT JUMPDEST PUSH1 0x6 PUSH0 DUP4 DUP2 MSTORE PUSH1 0x20 ADD SWAP1 DUP2 MSTORE PUSH1 0x20 ADD PUSH0 KECCAK256 PUSH0 ADD PUSH0 SWAP1 SLOAD SWAP1 PUSH2 0x100 EXP SWAP1 DIV PUSH20 0xFFFFFFFFFFFFFFFFFFFFFFFFFFFFFFFFFFFFFFFF AND SWAP1 POP SWAP2 SWAP1 POP JUMP JUMPDEST PUSH0 PUSH2 0x5E6 DUP3 PUSH2 0xA5D JUMP JUMPDEST SWAP1 POP DUP1 PUSH20 0xFFFFFFFFFFFFFFFFFFFFFFFFFFFFFFFFFFFFFFFF AND PUSH2 0x607 PUSH2 0x105A JUMP JUMPDEST PUSH20 0xFFFFFFFFFFFFFFFFFFFFFFFFFFFFFFFFFFFFFFFF AND EQ PUSH2 0x66A JUMPI PUSH2 0x633 DUP2 PUSH2 0x62E PUSH2 0x105A JUMP JUMPDEST PUSH2 0xEF0 JUMP JUMPDEST PUSH2 0x669 JUMPI PUSH1 0x40 MLOAD PUSH32 0xCFB3B94200000000000000000000000000000000000000000000000000000000 DUP2 MSTORE PUSH1 0x4 ADD PUSH1 0x40 MLOAD DUP1 SWAP2 SUB SWAP1 REVERT JUMPDEST JUMPDEST DUP3 PUSH1 0x6 PUSH0 DUP5 DUP2 MSTORE PUSH1 0x20 ADD SWAP1 DUP2 MSTORE PUSH1 0x20 ADD PUSH0 KECCAK256 PUSH0 ADD PUSH0 PUSH2 0x100 EXP DUP2 SLOAD DUP2 PUSH20 0xFFFFFFFFFFFFFFFFFFFFFFFFFFFFFFFFFFFFFFFF MUL NOT AND SWAP1 DUP4 PUSH20 0xFFFFFFFFFFFFFFFFFFFFFFFFFFFFFFFFFFFFFFFF AND MUL OR SWAP1 SSTORE POP DUP2 DUP4 PUSH20 0xFFFFFFFFFFFFFFFFFFFFFFFFFFFFFFFFFFFFFFFF AND DUP3 PUSH20 0xFFFFFFFFFFFFFFFFFFFFFFFFFFFFFFFFFFFFFFFF AND PUSH32 0x8C5BE1E5EBEC7D5BD14F71427D1E84F3DD0314C0F7B2291E5B200AC8C7C3B925 PUSH1 0x40 MLOAD PUSH1 0x40 MLOAD DUP1 SWAP2 SUB SWAP1 LOG4 POP POP POP JUMP JUMPDEST PUSH0 PUSH2 0x724 PUSH2 0x1061 JUMP JUMPDEST PUSH1 0x1 SLOAD PUSH0 SLOAD SUB SUB SWAP1 POP SWAP1 JUMP JUMPDEST PUSH0 PUSH2 0x73A DUP3 PUSH2 0x1065 JUMP JUMPDEST SWAP1 POP DUP4 PUSH20 0xFFFFFFFFFFFFFFFFFFFFFFFFFFFFFFFFFFFFFFFF AND DUP2 PUSH20 0xFFFFFFFFFFFFFFFFFFFFFFFFFFFFFFFFFFFFFFFF AND EQ PUSH2 0x7A1 JUMPI PUSH1 0x40 MLOAD PUSH32 0xA114810000000000000000000000000000000000000000000000000000000000 DUP2 MSTORE PUSH1 0x4 ADD PUSH1 0x40 MLOAD DUP1 SWAP2 SUB SWAP1 REVERT JUMPDEST PUSH0 DUP1 PUSH2 0x7AC DUP5 PUSH2 0x1128 JUMP JUMPDEST SWAP2 POP SWAP2 POP PUSH2 0x7C2 DUP2 DUP8 PUSH2 0x7BD PUSH2 0x105A JUMP JUMPDEST PUSH2 0x114B JUMP JUMPDEST PUSH2 0x80E JUMPI PUSH2 0x7D7 DUP7 PUSH2 0x7D2 PUSH2 0x105A JUMP JUMPDEST PUSH2 0xEF0 JUMP JUMPDEST PUSH2 0x80D JUMPI PUSH1 0x40 MLOAD PUSH32 0x59C896BE00000000000000000000000000000000000000000000000000000000 DUP2 MSTORE PUSH1 0x4 ADD PUSH1 0x40 MLOAD DUP1 SWAP2 SUB SWAP1 REVERT JUMPDEST JUMPDEST PUSH0 PUSH20 0xFFFFFFFFFFFFFFFFFFFFFFFFFFFFFFFFFFFFFFFF AND DUP6 PUSH20 0xFFFFFFFFFFFFFFFFFFFFFFFFFFFFFFFFFFFFFFFF AND SUB PUSH2 0x873 JUMPI PUSH1 0x40 MLOAD PUSH32 0xEA553B3400000000000000000000000000000000000000000000000000000000 DUP2 MSTORE PUSH1 0x4 ADD PUSH1 0x40 MLOAD DUP1 SWAP2 SUB SWAP1 REVERT JUMPDEST PUSH2 0x880 DUP7 DUP7 DUP7 PUSH1 0x1 PUSH2 0x118E JUMP JUMPDEST DUP1 ISZERO PUSH2 0x88A JUMPI PUSH0 DUP3 SSTORE JUMPDEST PUSH1 0x5 PUSH0 DUP8 PUSH20 0xFFFFFFFFFFFFFFFFFFFFFFFFFFFFFFFFFFFFFFFF AND PUSH20 0xFFFFFFFFFFFFFFFFFFFFFFFFFFFFFFFFFFFFFFFF AND DUP2 MSTORE PUSH1 0x20 ADD SWAP1 DUP2 MSTORE PUSH1 0x20 ADD PUSH0 KECCAK256 PUSH0 DUP2 SLOAD PUSH1 0x1 SWAP1 SUB SWAP2 SWAP1 POP DUP2 SWAP1 SSTORE POP PUSH1 0x5 PUSH0 DUP7 PUSH20 0xFFFFFFFFFFFFFFFFFFFFFFFFFFFFFFFFFFFFFFFF AND PUSH20 0xFFFFFFFFFFFFFFFFFFFFFFFFFFFFFFFFFFFFFFFF AND DUP2 MSTORE PUSH1 0x20 ADD SWAP1 DUP2 MSTORE PUSH1 0x20 ADD PUSH0 KECCAK256 PUSH0 DUP2 SLOAD PUSH1 0x1 ADD SWAP2 SWAP1 POP DUP2 SWAP1 SSTORE POP PUSH2 0x952 DUP6 PUSH2 0x92E DUP9 DUP9 DUP8 PUSH2 0x1194 JUMP JUMPDEST PUSH29 0x200000000000000000000000000000000000000000000000000000000 OR PUSH2 0x11BB JUMP JUMPDEST PUSH1 0x4 PUSH0 DUP7 DUP2 MSTORE PUSH1 0x20 ADD SWAP1 DUP2 MSTORE PUSH1 0x20 ADD PUSH0 KECCAK256 DUP2 SWAP1 SSTORE POP PUSH0 PUSH29 0x200000000000000000000000000000000000000000000000000000000 DUP5 AND SUB PUSH2 0x9CE JUMPI PUSH0 PUSH1 0x1 DUP6 ADD SWAP1 POP PUSH0 PUSH1 0x4 PUSH0 DUP4 DUP2 MSTORE PUSH1 0x20 ADD SWAP1 DUP2 MSTORE PUSH1 0x20 ADD PUSH0 KECCAK256 SLOAD SUB PUSH2 0x9CC JUMPI PUSH0 SLOAD DUP2 EQ PUSH2 0x9CB JUMPI DUP4 PUSH1 0x4 PUSH0 DUP4 DUP2 MSTORE PUSH1 0x20 ADD SWAP1 DUP2 MSTORE PUSH1 0x20 ADD PUSH0 KECCAK256 DUP2 SWAP1 SSTORE POP JUMPDEST JUMPDEST POP JUMPDEST DUP4 DUP6 PUSH20 0xFFFFFFFFFFFFFFFFFFFFFFFFFFFFFFFFFFFFFFFF AND DUP8 PUSH20 0xFFFFFFFFFFFFFFFFFFFFFFFFFFFFFFFFFFFFFFFF AND PUSH32 0xDDF252AD1BE2C89B69C2B068FC378DAA952BA7F163C4A11628F55A4DF523B3EF PUSH1 0x40 MLOAD PUSH1 0x40 MLOAD DUP1 SWAP2 SUB SWAP1 LOG4 PUSH2 0xA36 DUP7 DUP7 DUP7 PUSH1 0x1 PUSH2 0x11E5 JUMP JUMPDEST POP POP POP POP POP POP JUMP JUMPDEST PUSH2 0xA58 DUP4 DUP4 DUP4 PUSH1 0x40 MLOAD DUP1 PUSH1 0x20 ADD PUSH1 0x40 MSTORE DUP1 PUSH0 DUP2 MSTORE POP PUSH2 0xDAE JUMP JUMPDEST POP POP POP JUMP JUMPDEST PUSH0 PUSH2 0xA67 DUP3 PUSH2 0x1065 JUMP JUMPDEST SWAP1 POP SWAP2 SWAP1 POP JUMP JUMPDEST PUSH0 DUP1 PUSH20 0xFFFFFFFFFFFFFFFFFFFFFFFFFFFFFFFFFFFFFFFF AND DUP3 PUSH20 0xFFFFFFFFFFFFFFFFFFFFFFFFFFFFFFFFFFFFFFFF AND SUB PUSH2 0xAD4 JUMPI PUSH1 0x40 MLOAD PUSH32 0x8F4EB60400000000000000000000000000000000000000000000000000000000 DUP2 MSTORE PUSH1 0x4 ADD PUSH1 0x40 MLOAD DUP1 SWAP2 SUB SWAP1 REVERT JUMPDEST PUSH8 0xFFFFFFFFFFFFFFFF PUSH1 0x5 PUSH0 DUP5 PUSH20 0xFFFFFFFFFFFFFFFFFFFFFFFFFFFFFFFFFFFFFFFF AND PUSH20 0xFFFFFFFFFFFFFFFFFFFFFFFFFFFFFFFFFFFFFFFF AND DUP2 MSTORE PUSH1 0x20 ADD SWAP1 DUP2 MSTORE PUSH1 0x20 ADD PUSH0 KECCAK256 SLOAD AND SWAP1 POP SWAP2 SWAP1 POP JUMP JUMPDEST PUSH2 0xB2B PUSH2 0x11EB JUMP JUMPDEST PUSH2 0xB34 PUSH0 PUSH2 0x1269 JUMP JUMPDEST JUMP JUMPDEST PUSH0 PUSH1 0x8 PUSH0 SWAP1 SLOAD SWAP1 PUSH2 0x100 EXP SWAP1 DIV PUSH20 0xFFFFFFFFFFFFFFFFFFFFFFFFFFFFFFFFFFFFFFFF AND SWAP1 POP SWAP1 JUMP JUMPDEST PUSH1 0x60 PUSH1 0x3 DUP1 SLOAD PUSH2 0xB6D SWAP1 PUSH2 0x1E7B JUMP JUMPDEST DUP1 PUSH1 0x1F ADD PUSH1 0x20 DUP1 SWAP2 DIV MUL PUSH1 0x20 ADD PUSH1 0x40 MLOAD SWAP1 DUP2 ADD PUSH1 0x40 MSTORE DUP1 SWAP3 SWAP2 SWAP1 DUP2 DUP2 MSTORE PUSH1 0x20 ADD DUP3 DUP1 SLOAD PUSH2 0xB99 SWAP1 PUSH2 0x1E7B JUMP JUMPDEST DUP1 ISZERO PUSH2 0xBE4 JUMPI DUP1 PUSH1 0x1F LT PUSH2 0xBBB JUMPI PUSH2 0x100 DUP1 DUP4 SLOAD DIV MUL DUP4 MSTORE SWAP2 PUSH1 0x20 ADD SWAP2 PUSH2 0xBE4 JUMP JUMPDEST DUP3 ADD SWAP2 SWAP1 PUSH0 MSTORE PUSH1 0x20 PUSH0 KECCAK256 SWAP1 JUMPDEST DUP2 SLOAD DUP2 MSTORE SWAP1 PUSH1 0x1 ADD SWAP1 PUSH1 0x20 ADD DUP1 DUP4 GT PUSH2 0xBC7 JUMPI DUP3 SWAP1 SUB PUSH1 0x1F AND DUP3 ADD SWAP2 JUMPDEST POP POP POP POP POP SWAP1 POP SWAP1 JUMP JUMPDEST PUSH1 0xA DUP2 PUSH2 0xBFA CALLER PUSH2 0x132C JUMP JUMPDEST PUSH2 0xC04 SWAP2 SWAP1 PUSH2 0x1ED8 JUMP JUMPDEST GT ISZERO PUSH2 0xC45 JUMPI PUSH1 0x40 MLOAD PUSH32 0x8C379A000000000000000000000000000000000000000000000000000000000 DUP2 MSTORE PUSH1 0x4 ADD PUSH2 0xC3C SWAP1 PUSH2 0x1F55 JUMP JUMPDEST PUSH1 0x40 MLOAD DUP1 SWAP2 SUB SWAP1 REVERT JUMPDEST PUSH1 0x64 DUP2 PUSH2 0xC50 PUSH2 0x71B JUMP JUMPDEST PUSH2 0xC5A SWAP2 SWAP1 PUSH2 0x1ED8 JUMP JUMPDEST GT ISZERO PUSH2 0xC9B JUMPI PUSH1 0x40 MLOAD PUSH32 0x8C379A000000000000000000000000000000000000000000000000000000000 DUP2 MSTORE PUSH1 0x4 ADD PUSH2 0xC92 SWAP1 PUSH2 0x1FBD JUMP JUMPDEST PUSH1 0x40 MLOAD DUP1 SWAP2 SUB SWAP1 REVERT JUMPDEST PUSH2 0xCA5 CALLER DUP3 PUSH2 0x1380 JUMP JUMPDEST POP JUMP JUMPDEST DUP1 PUSH1 0x7 PUSH0 PUSH2 0xCB4 PUSH2 0x105A JUMP JUMPDEST PUSH20 0xFFFFFFFFFFFFFFFFFFFFFFFFFFFFFFFFFFFFFFFF AND PUSH20 0xFFFFFFFFFFFFFFFFFFFFFFFFFFFFFFFFFFFFFFFF AND DUP2 MSTORE PUSH1 0x20 ADD SWAP1 DUP2 MSTORE PUSH1 0x20 ADD PUSH0 KECCAK256 PUSH0 DUP5 PUSH20 0xFFFFFFFFFFFFFFFFFFFFFFFFFFFFFFFFFFFFFFFF AND PUSH20 0xFFFFFFFFFFFFFFFFFFFFFFFFFFFFFFFFFFFFFFFF AND DUP2 MSTORE PUSH1 0x20 ADD SWAP1 DUP2 MSTORE PUSH1 0x20 ADD PUSH0 KECCAK256 PUSH0 PUSH2 0x100 EXP DUP2 SLOAD DUP2 PUSH1 0xFF MUL NOT AND SWAP1 DUP4 ISZERO ISZERO MUL OR SWAP1 SSTORE POP DUP2 PUSH20 0xFFFFFFFFFFFFFFFFFFFFFFFFFFFFFFFFFFFFFFFF AND PUSH2 0xD5D PUSH2 0x105A JUMP JUMPDEST PUSH20 0xFFFFFFFFFFFFFFFFFFFFFFFFFFFFFFFFFFFFFFFF AND PUSH32 0x17307EAB39AB6107E8899845AD3D59BD9653F200F220920489CA2B5937696C31 DUP4 PUSH1 0x40 MLOAD PUSH2 0xDA2 SWAP2 SWAP1 PUSH2 0x18D0 JUMP JUMPDEST PUSH1 0x40 MLOAD DUP1 SWAP2 SUB SWAP1 LOG3 POP POP JUMP JUMPDEST PUSH2 0xDB9 DUP5 DUP5 DUP5 PUSH2 0x730 JUMP JUMPDEST PUSH0 DUP4 PUSH20 0xFFFFFFFFFFFFFFFFFFFFFFFFFFFFFFFFFFFFFFFF AND EXTCODESIZE EQ PUSH2 0xE1A JUMPI PUSH2 0xDE3 DUP5 DUP5 DUP5 DUP5 PUSH2 0x139D JUMP JUMPDEST PUSH2 0xE19 JUMPI PUSH1 0x40 MLOAD PUSH32 0xD1A57ED600000000000000000000000000000000000000000000000000000000 DUP2 MSTORE PUSH1 0x4 ADD PUSH1 0x40 MLOAD DUP1 SWAP2 SUB SWAP1 REVERT JUMPDEST JUMPDEST POP POP POP POP JUMP JUMPDEST PUSH2 0xE28 PUSH2 0x11EB JUMP JUMPDEST DUP2 DUP2 PUSH1 0x9 SWAP2 DUP3 PUSH2 0xE39 SWAP3 SWAP2 SWAP1 PUSH2 0x2182 JUMP JUMPDEST POP POP POP JUMP JUMPDEST PUSH1 0x60 PUSH2 0xE49 DUP3 PUSH2 0x1000 JUMP JUMPDEST PUSH2 0xE7F JUMPI PUSH1 0x40 MLOAD PUSH32 0xA14C4B5000000000000000000000000000000000000000000000000000000000 DUP2 MSTORE PUSH1 0x4 ADD PUSH1 0x40 MLOAD DUP1 SWAP2 SUB SWAP1 REVERT JUMPDEST PUSH1 0x60 PUSH0 PUSH2 0xE8A PUSH2 0x14E8 JUMP JUMPDEST SWAP1 POP PUSH2 0xEA1 PUSH1 0x1 DUP6 PUSH2 0xE9C SWAP2 SWAP1 PUSH2 0x1ED8 JUMP JUMPDEST PUSH2 0x1578 JUMP JUMPDEST SWAP2 POP PUSH0 DUP2 DUP4 PUSH1 0x40 MLOAD PUSH1 0x20 ADD PUSH2 0xEB7 SWAP3 SWAP2 SWAP1 PUSH2 0x22D3 JUMP JUMPDEST PUSH1 0x40 MLOAD PUSH1 0x20 DUP2 DUP4 SUB SUB DUP2 MSTORE SWAP1 PUSH1 0x40 MSTORE SWAP1 POP PUSH0 DUP3 MLOAD SUB PUSH2 0xEE4 JUMPI PUSH1 0x40 MLOAD DUP1 PUSH1 0x20 ADD PUSH1 0x40 MSTORE DUP1 PUSH0 DUP2 MSTORE POP PUSH2 0xEE6 JUMP JUMPDEST DUP1 JUMPDEST SWAP4 POP POP POP POP SWAP2 SWAP1 POP JUMP JUMPDEST PUSH0 PUSH1 0x7 PUSH0 DUP5 PUSH20 0xFFFFFFFFFFFFFFFFFFFFFFFFFFFFFFFFFFFFFFFF AND PUSH20 0xFFFFFFFFFFFFFFFFFFFFFFFFFFFFFFFFFFFFFFFF AND DUP2 MSTORE PUSH1 0x20 ADD SWAP1 DUP2 MSTORE PUSH1 0x20 ADD PUSH0 KECCAK256 PUSH0 DUP4 PUSH20 0xFFFFFFFFFFFFFFFFFFFFFFFFFFFFFFFFFFFFFFFF AND PUSH20 0xFFFFFFFFFFFFFFFFFFFFFFFFFFFFFFFFFFFFFFFF AND DUP2 MSTORE PUSH1 0x20 ADD SWAP1 DUP2 MSTORE PUSH1 0x20 ADD PUSH0 KECCAK256 PUSH0 SWAP1 SLOAD SWAP1 PUSH2 0x100 EXP SWAP1 DIV PUSH1 0xFF AND SWAP1 POP SWAP3 SWAP2 POP POP JUMP JUMPDEST PUSH2 0xF86 PUSH2 0x11EB JUMP JUMPDEST PUSH0 PUSH20 0xFFFFFFFFFFFFFFFFFFFFFFFFFFFFFFFFFFFFFFFF AND DUP2 PUSH20 0xFFFFFFFFFFFFFFFFFFFFFFFFFFFFFFFFFFFFFFFF AND SUB PUSH2 0xFF4 JUMPI PUSH1 0x40 MLOAD PUSH32 0x8C379A000000000000000000000000000000000000000000000000000000000 DUP2 MSTORE PUSH1 0x4 ADD PUSH2 0xFEB SWAP1 PUSH2 0x2371 JUMP JUMPDEST PUSH1 0x40 MLOAD DUP1 SWAP2 SUB SWAP1 REVERT JUMPDEST PUSH2 0xFFD DUP2 PUSH2 0x1269 JUMP JUMPDEST POP JUMP JUMPDEST PUSH0 DUP2 PUSH2 0x100A PUSH2 0x1061 JUMP JUMPDEST GT ISZERO DUP1 ISZERO PUSH2 0x1018 JUMPI POP PUSH0 SLOAD DUP3 LT JUMPDEST DUP1 ISZERO PUSH2 0x1053 JUMPI POP PUSH0 PUSH29 0x100000000000000000000000000000000000000000000000000000000 PUSH1 0x4 PUSH0 DUP6 DUP2 MSTORE PUSH1 0x20 ADD SWAP1 DUP2 MSTORE PUSH1 0x20 ADD PUSH0 KECCAK256 SLOAD AND EQ JUMPDEST SWAP1 POP SWAP2 SWAP1 POP JUMP JUMPDEST PUSH0 CALLER SWAP1 POP SWAP1 JUMP JUMPDEST PUSH0 SWAP1 JUMP JUMPDEST PUSH0 DUP1 DUP3 SWAP1 POP DUP1 PUSH2 0x1073 PUSH2 0x1061 JUMP JUMPDEST GT PUSH2 0x10F1 JUMPI PUSH0 SLOAD DUP2 LT ISZERO PUSH2 0x10F0 JUMPI PUSH0 PUSH1 0x4 PUSH0 DUP4 DUP2 MSTORE PUSH1 0x20 ADD SWAP1 DUP2 MSTORE PUSH1 0x20 ADD PUSH0 KECCAK256 SLOAD SWAP1 POP PUSH0 PUSH29 0x100000000000000000000000000000000000000000000000000000000 DUP3 AND SUB PUSH2 0x10EE JUMPI JUMPDEST PUSH0 DUP2 SUB PUSH2 0x10E4 JUMPI PUSH1 0x4 PUSH0 DUP4 PUSH1 0x1 SWAP1 SUB SWAP4 POP DUP4 DUP2 MSTORE PUSH1 0x20 ADD SWAP1 DUP2 MSTORE PUSH1 0x20 ADD PUSH0 KECCAK256 SLOAD SWAP1 POP PUSH2 0x10BD JUMP JUMPDEST DUP1 SWAP3 POP POP POP PUSH2 0x1123 JUMP JUMPDEST POP JUMPDEST JUMPDEST PUSH1 0x40 MLOAD PUSH32 0xDF2D9B4200000000000000000000000000000000000000000000000000000000 DUP2 MSTORE PUSH1 0x4 ADD PUSH1 0x40 MLOAD DUP1 SWAP2 SUB SWAP1 REVERT JUMPDEST SWAP2 SWAP1 POP JUMP JUMPDEST PUSH0 DUP1 PUSH0 PUSH1 0x6 PUSH0 DUP6 DUP2 MSTORE PUSH1 0x20 ADD SWAP1 DUP2 MSTORE PUSH1 0x20 ADD PUSH0 KECCAK256 SWAP1 POP DUP1 SWAP3 POP DUP3 SLOAD SWAP2 POP POP SWAP2 POP SWAP2 JUMP JUMPDEST PUSH0 PUSH20 0xFFFFFFFFFFFFFFFFFFFFFFFFFFFFFFFFFFFFFFFF DUP4 AND SWAP3 POP PUSH20 0xFFFFFFFFFFFFFFFFFFFFFFFFFFFFFFFFFFFFFFFF DUP3 AND SWAP2 POP DUP4 DUP3 EQ DUP4 DUP4 EQ OR SWAP1 POP SWAP4 SWAP3 POP POP POP JUMP JUMPDEST POP POP POP POP JUMP JUMPDEST PUSH0 DUP1 PUSH1 0xE8 DUP4 SWAP1 SHR SWAP1 POP PUSH1 0xE8 PUSH2 0x11AA DUP7 DUP7 DUP5 PUSH2 0x15C7 JUMP JUMPDEST PUSH3 0xFFFFFF AND SWAP1 SHL SWAP2 POP POP SWAP4 SWAP3 POP POP POP JUMP JUMPDEST PUSH0 PUSH20 0xFFFFFFFFFFFFFFFFFFFFFFFFFFFFFFFFFFFFFFFF DUP4 AND SWAP3 POP DUP2 TIMESTAMP PUSH1 0xA0 SHL OR DUP4 OR SWAP1 POP SWAP3 SWAP2 POP POP JUMP JUMPDEST POP POP POP POP JUMP JUMPDEST PUSH2 0x11F3 PUSH2 0x15CF JUMP JUMPDEST PUSH20 0xFFFFFFFFFFFFFFFFFFFFFFFFFFFFFFFFFFFFFFFF AND PUSH2 0x1211 PUSH2 0xB36 JUMP JUMPDEST PUSH20 0xFFFFFFFFFFFFFFFFFFFFFFFFFFFFFFFFFFFFFFFF AND EQ PUSH2 0x1267 JUMPI PUSH1 0x40 MLOAD PUSH32 0x8C379A000000000000000000000000000000000000000000000000000000000 DUP2 MSTORE PUSH1 0x4 ADD PUSH2 0x125E SWAP1 PUSH2 0x23D9 JUMP JUMPDEST PUSH1 0x40 MLOAD DUP1 SWAP2 SUB SWAP1 REVERT JUMPDEST JUMP JUMPDEST PUSH0 PUSH1 0x8 PUSH0 SWAP1 SLOAD SWAP1 PUSH2 0x100 EXP SWAP1 DIV PUSH20 0xFFFFFFFFFFFFFFFFFFFFFFFFFFFFFFFFFFFFFFFF AND SWAP1 POP DUP2 PUSH1 0x8 PUSH0 PUSH2 0x100 EXP DUP2 SLOAD DUP2 PUSH20 0xFFFFFFFFFFFFFFFFFFFFFFFFFFFFFFFFFFFFFFFF MUL NOT AND SWAP1 DUP4 PUSH20 0xFFFFFFFFFFFFFFFFFFFFFFFFFFFFFFFFFFFFFFFF AND MUL OR SWAP1 SSTORE POP DUP2 PUSH20 0xFFFFFFFFFFFFFFFFFFFFFFFFFFFFFFFFFFFFFFFF AND DUP2 PUSH20 0xFFFFFFFFFFFFFFFFFFFFFFFFFFFFFFFFFFFFFFFF AND PUSH32 0x8BE0079C531659141344CD1FD0A4F28419497F9722A3DAAFE3B4186F6B6457E0 PUSH1 0x40 MLOAD PUSH1 0x40 MLOAD DUP1 SWAP2 SUB SWAP1 LOG3 POP POP JUMP JUMPDEST PUSH0 PUSH8 0xFFFFFFFFFFFFFFFF PUSH1 0x40 PUSH1 0x5 PUSH0 DUP6 PUSH20 0xFFFFFFFFFFFFFFFFFFFFFFFFFFFFFFFFFFFFFFFF AND PUSH20 0xFFFFFFFFFFFFFFFFFFFFFFFFFFFFFFFFFFFFFFFF AND DUP2 MSTORE PUSH1 0x20 ADD SWAP1 DUP2 MSTORE PUSH1 0x20 ADD PUSH0 KECCAK256 SLOAD SWAP1 SHR AND SWAP1 POP SWAP2 SWAP1 POP JUMP JUMPDEST PUSH2 0x1399 DUP3 DUP3 PUSH1 0x40 MLOAD DUP1 PUSH1 0x20 ADD PUSH1 0x40 MSTORE DUP1 PUSH0 DUP2 MSTORE POP PUSH2 0x15D6 JUMP JUMPDEST POP POP JUMP JUMPDEST PUSH0 DUP4 PUSH20 0xFFFFFFFFFFFFFFFFFFFFFFFFFFFFFFFFFFFFFFFF AND PUSH4 0x150B7A02 PUSH2 0x13C2 PUSH2 0x105A JUMP JUMPDEST DUP8 DUP7 DUP7 PUSH1 0x40 MLOAD DUP6 PUSH4 0xFFFFFFFF AND PUSH1 0xE0 SHL DUP2 MSTORE PUSH1 0x4 ADD PUSH2 0x13E4 SWAP5 SWAP4 SWAP3 SWAP2 SWAP1 PUSH2 0x2449 JUMP JUMPDEST PUSH1 0x20 PUSH1 0x40 MLOAD DUP1 DUP4 SUB DUP2 PUSH0 DUP8 GAS CALL SWAP3 POP POP POP DUP1 ISZERO PUSH2 0x141F JUMPI POP PUSH1 0x40 MLOAD RETURNDATASIZE PUSH1 0x1F NOT PUSH1 0x1F DUP3 ADD AND DUP3 ADD DUP1 PUSH1 0x40 MSTORE POP DUP2 ADD SWAP1 PUSH2 0x141C SWAP2 SWAP1 PUSH2 0x24A7 JUMP JUMPDEST PUSH1 0x1 JUMPDEST PUSH2 0x1495 JUMPI RETURNDATASIZE DUP1 PUSH0 DUP2 EQ PUSH2 0x144D JUMPI PUSH1 0x40 MLOAD SWAP2 POP PUSH1 0x1F NOT PUSH1 0x3F RETURNDATASIZE ADD AND DUP3 ADD PUSH1 0x40 MSTORE RETURNDATASIZE DUP3 MSTORE RETURNDATASIZE PUSH0 PUSH1 0x20 DUP5 ADD RETURNDATACOPY PUSH2 0x1452 JUMP JUMPDEST PUSH1 0x60 SWAP2 POP JUMPDEST POP PUSH0 DUP2 MLOAD SUB PUSH2 0x148D JUMPI PUSH1 0x40 MLOAD PUSH32 0xD1A57ED600000000000000000000000000000000000000000000000000000000 DUP2 MSTORE PUSH1 0x4 ADD PUSH1 0x40 MLOAD DUP1 SWAP2 SUB SWAP1 REVERT JUMPDEST DUP1 MLOAD DUP2 PUSH1 0x20 ADD REVERT JUMPDEST PUSH4 0x150B7A02 PUSH1 0xE0 SHL PUSH28 0xFFFFFFFFFFFFFFFFFFFFFFFFFFFFFFFFFFFFFFFFFFFFFFFFFFFFFFFF NOT AND DUP2 PUSH28 0xFFFFFFFFFFFFFFFFFFFFFFFFFFFFFFFFFFFFFFFFFFFFFFFFFFFFFFFF NOT AND EQ SWAP2 POP POP SWAP5 SWAP4 POP POP POP POP JUMP JUMPDEST PUSH1 0x60 PUSH1 0x9 DUP1 SLOAD PUSH2 0x14F7 SWAP1 PUSH2 0x1E7B JUMP JUMPDEST DUP1 PUSH1 0x1F ADD PUSH1 0x20 DUP1 SWAP2 DIV MUL PUSH1 0x20 ADD PUSH1 0x40 MLOAD SWAP1 DUP2 ADD PUSH1 0x40 MSTORE DUP1 SWAP3 SWAP2 SWAP1 DUP2 DUP2 MSTORE PUSH1 0x20 ADD DUP3 DUP1 SLOAD PUSH2 0x1523 SWAP1 PUSH2 0x1E7B JUMP JUMPDEST DUP1 ISZERO PUSH2 0x156E JUMPI DUP1 PUSH1 0x1F LT PUSH2 0x1545 JUMPI PUSH2 0x100 DUP1 DUP4 SLOAD DIV MUL DUP4 MSTORE SWAP2 PUSH1 0x20 ADD SWAP2 PUSH2 0x156E JUMP JUMPDEST DUP3 ADD SWAP2 SWAP1 PUSH0 MSTORE PUSH1 0x20 PUSH0 KECCAK256 SWAP1 JUMPDEST DUP2 SLOAD DUP2 MSTORE SWAP1 PUSH1 0x1 ADD SWAP1 PUSH1 0x20 ADD DUP1 DUP4 GT PUSH2 0x1551 JUMPI DUP3 SWAP1 SUB PUSH1 0x1F AND DUP3 ADD SWAP2 JUMPDEST POP POP POP POP POP SWAP1 POP SWAP1 JUMP JUMPDEST PUSH1 0x60 PUSH1 0xA0 PUSH1 0x40 MLOAD ADD DUP1 PUSH1 0x40 MSTORE PUSH1 0x20 DUP2 SUB SWAP2 POP PUSH0 DUP3 MSTORE DUP2 DUP4 JUMPDEST PUSH1 0x1 ISZERO PUSH2 0x15B2 JUMPI PUSH1 0x1 DUP5 SUB SWAP4 POP PUSH1 0xA DUP2 MOD PUSH1 0x30 ADD DUP5 MSTORE8 PUSH1 0xA DUP2 DIV SWAP1 POP DUP1 PUSH2 0x1590 JUMPI JUMPDEST POP DUP3 DUP2 SUB PUSH1 0x20 DUP5 SUB SWAP4 POP DUP1 DUP5 MSTORE POP POP POP SWAP2 SWAP1 POP JUMP JUMPDEST PUSH0 SWAP4 SWAP3 POP POP POP JUMP JUMPDEST PUSH0 CALLER SWAP1 POP SWAP1 JUMP JUMPDEST PUSH2 0x15E0 DUP4 DUP4 PUSH2 0x166D JUMP JUMPDEST PUSH0 DUP4 PUSH20 0xFFFFFFFFFFFFFFFFFFFFFFFFFFFFFFFFFFFFFFFF AND EXTCODESIZE EQ PUSH2 0x1668 JUMPI PUSH0 DUP1 SLOAD SWAP1 POP PUSH0 DUP4 DUP3 SUB SWAP1 POP JUMPDEST PUSH2 0x161C PUSH0 DUP7 DUP4 DUP1 PUSH1 0x1 ADD SWAP5 POP DUP7 PUSH2 0x139D JUMP JUMPDEST PUSH2 0x1652 JUMPI PUSH1 0x40 MLOAD PUSH32 0xD1A57ED600000000000000000000000000000000000000000000000000000000 DUP2 MSTORE PUSH1 0x4 ADD PUSH1 0x40 MLOAD DUP1 SWAP2 SUB SWAP1 REVERT JUMPDEST DUP2 DUP2 LT PUSH2 0x160A JUMPI DUP2 PUSH0 SLOAD EQ PUSH2 0x1665 JUMPI PUSH0 DUP1 REVERT JUMPDEST POP POP JUMPDEST POP POP POP JUMP JUMPDEST PUSH0 DUP1 SLOAD SWAP1 POP PUSH0 DUP3 SUB PUSH2 0x16AB JUMPI PUSH1 0x40 MLOAD PUSH32 0xB562E8DD00000000000000000000000000000000000000000000000000000000 DUP2 MSTORE PUSH1 0x4 ADD PUSH1 0x40 MLOAD DUP1 SWAP2 SUB SWAP1 REVERT JUMPDEST PUSH2 0x16B7 PUSH0 DUP5 DUP4 DUP6 PUSH2 0x118E JUMP JUMPDEST PUSH1 0x1 PUSH1 0x40 PUSH1 0x1 SWAP1 SHL OR DUP3 MUL PUSH1 0x5 PUSH0 DUP6 PUSH20 0xFFFFFFFFFFFFFFFFFFFFFFFFFFFFFFFFFFFFFFFF AND PUSH20 0xFFFFFFFFFFFFFFFFFFFFFFFFFFFFFFFFFFFFFFFF AND DUP2 MSTORE PUSH1 0x20 ADD SWAP1 DUP2 MSTORE PUSH1 0x20 ADD PUSH0 KECCAK256 PUSH0 DUP3 DUP3 SLOAD ADD SWAP3 POP POP DUP2 SWAP1 SSTORE POP PUSH2 0x1729 DUP4 PUSH2 0x171A PUSH0 DUP7 PUSH0 PUSH2 0x1194 JUMP JUMPDEST PUSH2 0x1723 DUP6 PUSH2 0x1816 JUMP JUMPDEST OR PUSH2 0x11BB JUMP JUMPDEST PUSH1 0x4 PUSH0 DUP4 DUP2 MSTORE PUSH1 0x20 ADD SWAP1 DUP2 MSTORE PUSH1 0x20 ADD PUSH0 KECCAK256 DUP2 SWAP1 SSTORE POP PUSH0 DUP1 DUP4 DUP4 ADD SWAP1 POP PUSH20 0xFFFFFFFFFFFFFFFFFFFFFFFFFFFFFFFFFFFFFFFF DUP6 AND SWAP2 POP DUP3 DUP3 PUSH0 PUSH32 0xDDF252AD1BE2C89B69C2B068FC378DAA952BA7F163C4A11628F55A4DF523B3EF PUSH0 DUP1 LOG4 PUSH1 0x1 DUP4 ADD JUMPDEST DUP2 DUP2 EQ PUSH2 0x17C3 JUMPI DUP1 DUP4 PUSH0 PUSH32 0xDDF252AD1BE2C89B69C2B068FC378DAA952BA7F163C4A11628F55A4DF523B3EF PUSH0 DUP1 LOG4 PUSH1 0x1 DUP2 ADD SWAP1 POP PUSH2 0x178A JUMP JUMPDEST POP PUSH0 DUP3 SUB PUSH2 0x17FD JUMPI PUSH1 0x40 MLOAD PUSH32 0x2E07630000000000000000000000000000000000000000000000000000000000 DUP2 MSTORE PUSH1 0x4 ADD PUSH1 0x40 MLOAD DUP1 SWAP2 SUB SWAP1 REVERT JUMPDEST DUP1 PUSH0 DUP2 SWAP1 SSTORE POP POP POP PUSH2 0x1811 PUSH0 DUP5 DUP4 DUP6 PUSH2 0x11E5 JUMP JUMPDEST POP POP POP JUMP JUMPDEST PUSH0 PUSH1 0x1 DUP3 EQ PUSH1 0xE1 SHL SWAP1 POP SWAP2 SWAP1 POP JUMP JUMPDEST PUSH0 PUSH1 0x40 MLOAD SWAP1 POP SWAP1 JUMP JUMPDEST PUSH0 DUP1 REVERT JUMPDEST PUSH0 DUP1 REVERT JUMPDEST PUSH0 PUSH32 0xFFFFFFFF00000000000000000000000000000000000000000000000000000000 DUP3 AND SWAP1 POP SWAP2 SWAP1 POP JUMP JUMPDEST PUSH2 0x186A DUP2 PUSH2 0x1836 JUMP JUMPDEST DUP2 EQ PUSH2 0x1874 JUMPI PUSH0 DUP1 REVERT JUMPDEST POP JUMP JUMPDEST PUSH0 DUP2 CALLDATALOAD SWAP1 POP PUSH2 0x1885 DUP2 PUSH2 0x1861 JUMP JUMPDEST SWAP3 SWAP2 POP POP JUMP JUMPDEST PUSH0 PUSH1 0x20 DUP3 DUP5 SUB SLT ISZERO PUSH2 0x18A0 JUMPI PUSH2 0x189F PUSH2 0x182E JUMP JUMPDEST JUMPDEST PUSH0 PUSH2 0x18AD DUP5 DUP3 DUP6 ADD PUSH2 0x1877 JUMP JUMPDEST SWAP2 POP POP SWAP3 SWAP2 POP POP JUMP JUMPDEST PUSH0 DUP2 ISZERO ISZERO SWAP1 POP SWAP2 SWAP1 POP JUMP JUMPDEST PUSH2 0x18CA DUP2 PUSH2 0x18B6 JUMP JUMPDEST DUP3 MSTORE POP POP JUMP JUMPDEST PUSH0 PUSH1 0x20 DUP3 ADD SWAP1 POP PUSH2 0x18E3 PUSH0 DUP4 ADD DUP5 PUSH2 0x18C1 JUMP JUMPDEST SWAP3 SWAP2 POP POP JUMP JUMPDEST PUSH0 DUP2 MLOAD SWAP1 POP SWAP2 SWAP1 POP JUMP JUMPDEST PUSH0 DUP3 DUP3 MSTORE PUSH1 0x20 DUP3 ADD SWAP1 POP SWAP3 SWAP2 POP POP JUMP JUMPDEST PUSH0 JUMPDEST DUP4 DUP2 LT ISZERO PUSH2 0x1920 JUMPI DUP1 DUP3 ADD MLOAD DUP2 DUP5 ADD MSTORE PUSH1 0x20 DUP2 ADD SWAP1 POP PUSH2 0x1905 JUMP JUMPDEST PUSH0 DUP5 DUP5 ADD MSTORE POP POP POP POP JUMP JUMPDEST PUSH0 PUSH1 0x1F NOT PUSH1 0x1F DUP4 ADD AND SWAP1 POP SWAP2 SWAP1 POP JUMP JUMPDEST PUSH0 PUSH2 0x1945 DUP3 PUSH2 0x18E9 JUMP JUMPDEST PUSH2 0x194F DUP2 DUP6 PUSH2 0x18F3 JUMP JUMPDEST SWAP4 POP PUSH2 0x195F DUP2 DUP6 PUSH1 0x20 DUP7 ADD PUSH2 0x1903 JUMP JUMPDEST PUSH2 0x1968 DUP2 PUSH2 0x192B JUMP JUMPDEST DUP5 ADD SWAP2 POP POP SWAP3 SWAP2 POP POP JUMP JUMPDEST PUSH0 PUSH1 0x20 DUP3 ADD SWAP1 POP DUP2 DUP2 SUB PUSH0 DUP4 ADD MSTORE PUSH2 0x198B DUP2 DUP5 PUSH2 0x193B JUMP JUMPDEST SWAP1 POP SWAP3 SWAP2 POP POP JUMP JUMPDEST PUSH0 DUP2 SWAP1 POP SWAP2 SWAP1 POP JUMP JUMPDEST PUSH2 0x19A5 DUP2 PUSH2 0x1993 JUMP JUMPDEST DUP2 EQ PUSH2 0x19AF JUMPI PUSH0 DUP1 REVERT JUMPDEST POP JUMP JUMPDEST PUSH0 DUP2 CALLDATALOAD SWAP1 POP PUSH2 0x19C0 DUP2 PUSH2 0x199C JUMP JUMPDEST SWAP3 SWAP2 POP POP JUMP JUMPDEST PUSH0 PUSH1 0x20 DUP3 DUP5 SUB SLT ISZERO PUSH2 0x19DB JUMPI PUSH2 0x19DA PUSH2 0x182E JUMP JUMPDEST JUMPDEST PUSH0 PUSH2 0x19E8 DUP5 DUP3 DUP6 ADD PUSH2 0x19B2 JUMP JUMPDEST SWAP2 POP POP SWAP3 SWAP2 POP POP JUMP JUMPDEST PUSH0 PUSH20 0xFFFFFFFFFFFFFFFFFFFFFFFFFFFFFFFFFFFFFFFF DUP3 AND SWAP1 POP SWAP2 SWAP1 POP JUMP JUMPDEST PUSH0 PUSH2 0x1A1A DUP3 PUSH2 0x19F1 JUMP JUMPDEST SWAP1 POP SWAP2 SWAP1 POP JUMP JUMPDEST PUSH2 0x1A2A DUP2 PUSH2 0x1A10 JUMP JUMPDEST DUP3 MSTORE POP POP JUMP JUMPDEST PUSH0 PUSH1 0x20 DUP3 ADD SWAP1 POP PUSH2 0x1A43 PUSH0 DUP4 ADD DUP5 PUSH2 0x1A21 JUMP JUMPDEST SWAP3 SWAP2 POP POP JUMP JUMPDEST PUSH2 0x1A52 DUP2 PUSH2 0x1A10 JUMP JUMPDEST DUP2 EQ PUSH2 0x1A5C JUMPI PUSH0 DUP1 REVERT JUMPDEST POP JUMP JUMPDEST PUSH0 DUP2 CALLDATALOAD SWAP1 POP PUSH2 0x1A6D DUP2 PUSH2 0x1A49 JUMP JUMPDEST SWAP3 SWAP2 POP POP JUMP JUMPDEST PUSH0 DUP1 PUSH1 0x40 DUP4 DUP6 SUB SLT ISZERO PUSH2 0x1A89 JUMPI PUSH2 0x1A88 PUSH2 0x182E JUMP JUMPDEST JUMPDEST PUSH0 PUSH2 0x1A96 DUP6 DUP3 DUP7 ADD PUSH2 0x1A5F JUMP JUMPDEST SWAP3 POP POP PUSH1 0x20 PUSH2 0x1AA7 DUP6 DUP3 DUP7 ADD PUSH2 0x19B2 JUMP JUMPDEST SWAP2 POP POP SWAP3 POP SWAP3 SWAP1 POP JUMP JUMPDEST PUSH2 0x1ABA DUP2 PUSH2 0x1993 JUMP JUMPDEST DUP3 MSTORE POP POP JUMP JUMPDEST PUSH0 PUSH1 0x20 DUP3 ADD SWAP1 POP PUSH2 0x1AD3 PUSH0 DUP4 ADD DUP5 PUSH2 0x1AB1 JUMP JUMPDEST SWAP3 SWAP2 POP POP JUMP JUMPDEST PUSH0 DUP1 PUSH0 PUSH1 0x60 DUP5 DUP7 SUB SLT ISZERO PUSH2 0x1AF0 JUMPI PUSH2 0x1AEF PUSH2 0x182E JUMP JUMPDEST JUMPDEST PUSH0 PUSH2 0x1AFD DUP7 DUP3 DUP8 ADD PUSH2 0x1A5F JUMP JUMPDEST SWAP4 POP POP PUSH1 0x20 PUSH2 0x1B0E DUP7 DUP3 DUP8 ADD PUSH2 0x1A5F JUMP JUMPDEST SWAP3 POP POP PUSH1 0x40 PUSH2 0x1B1F DUP7 DUP3 DUP8 ADD PUSH2 0x19B2 JUMP JUMPDEST SWAP2 POP POP SWAP3 POP SWAP3 POP SWAP3 JUMP JUMPDEST PUSH0 PUSH1 0x20 DUP3 DUP5 SUB SLT ISZERO PUSH2 0x1B3E JUMPI PUSH2 0x1B3D PUSH2 0x182E JUMP JUMPDEST JUMPDEST PUSH0 PUSH2 0x1B4B DUP5 DUP3 DUP6 ADD PUSH2 0x1A5F JUMP JUMPDEST SWAP2 POP POP SWAP3 SWAP2 POP POP JUMP JUMPDEST PUSH2 0x1B5D DUP2 PUSH2 0x18B6 JUMP JUMPDEST DUP2 EQ PUSH2 0x1B67 JUMPI PUSH0 DUP1 REVERT JUMPDEST POP JUMP JUMPDEST PUSH0 DUP2 CALLDATALOAD SWAP1 POP PUSH2 0x1B78 DUP2 PUSH2 0x1B54 JUMP JUMPDEST SWAP3 SWAP2 POP POP JUMP JUMPDEST PUSH0 DUP1 PUSH1 0x40 DUP4 DUP6 SUB SLT ISZERO PUSH2 0x1B94 JUMPI PUSH2 0x1B93 PUSH2 0x182E JUMP JUMPDEST JUMPDEST PUSH0 PUSH2 0x1BA1 DUP6 DUP3 DUP7 ADD PUSH2 0x1A5F JUMP JUMPDEST SWAP3 POP POP PUSH1 0x20 PUSH2 0x1BB2 DUP6 DUP3 DUP7 ADD PUSH2 0x1B6A JUMP JUMPDEST SWAP2 POP POP SWAP3 POP SWAP3 SWAP1 POP JUMP JUMPDEST PUSH0 DUP1 REVERT JUMPDEST PUSH0 DUP1 REVERT JUMPDEST PUSH32 0x4E487B7100000000000000000000000000000000000000000000000000000000 PUSH0 MSTORE PUSH1 0x41 PUSH1 0x4 MSTORE PUSH1 0x24 PUSH0 REVERT JUMPDEST PUSH2 0x1BFA DUP3 PUSH2 0x192B JUMP JUMPDEST DUP2 ADD DUP2 DUP2 LT PUSH8 0xFFFFFFFFFFFFFFFF DUP3 GT OR ISZERO PUSH2 0x1C19 JUMPI PUSH2 0x1C18 PUSH2 0x1BC4 JUMP JUMPDEST JUMPDEST DUP1 PUSH1 0x40 MSTORE POP POP POP JUMP JUMPDEST PUSH0 PUSH2 0x1C2B PUSH2 0x1825 JUMP JUMPDEST SWAP1 POP PUSH2 0x1C37 DUP3 DUP3 PUSH2 0x1BF1 JUMP JUMPDEST SWAP2 SWAP1 POP JUMP JUMPDEST PUSH0 PUSH8 0xFFFFFFFFFFFFFFFF DUP3 GT ISZERO PUSH2 0x1C56 JUMPI PUSH2 0x1C55 PUSH2 0x1BC4 JUMP JUMPDEST JUMPDEST PUSH2 0x1C5F DUP3 PUSH2 0x192B JUMP JUMPDEST SWAP1 POP PUSH1 0x20 DUP2 ADD SWAP1 POP SWAP2 SWAP1 POP JUMP JUMPDEST DUP3 DUP2 DUP4 CALLDATACOPY PUSH0 DUP4 DUP4 ADD MSTORE POP POP POP JUMP JUMPDEST PUSH0 PUSH2 0x1C8C PUSH2 0x1C87 DUP5 PUSH2 0x1C3C JUMP JUMPDEST PUSH2 0x1C22 JUMP JUMPDEST SWAP1 POP DUP3 DUP2 MSTORE PUSH1 0x20 DUP2 ADD DUP5 DUP5 DUP5 ADD GT ISZERO PUSH2 0x1CA8 JUMPI PUSH2 0x1CA7 PUSH2 0x1BC0 JUMP JUMPDEST JUMPDEST PUSH2 0x1CB3 DUP5 DUP3 DUP6 PUSH2 0x1C6C JUMP JUMPDEST POP SWAP4 SWAP3 POP POP POP JUMP JUMPDEST PUSH0 DUP3 PUSH1 0x1F DUP4 ADD SLT PUSH2 0x1CCF JUMPI PUSH2 0x1CCE PUSH2 0x1BBC JUMP JUMPDEST JUMPDEST DUP2 CALLDATALOAD PUSH2 0x1CDF DUP5 DUP3 PUSH1 0x20 DUP7 ADD PUSH2 0x1C7A JUMP JUMPDEST SWAP2 POP POP SWAP3 SWAP2 POP POP JUMP JUMPDEST PUSH0 DUP1 PUSH0 DUP1 PUSH1 0x80 DUP6 DUP8 SUB SLT ISZERO PUSH2 0x1D00 JUMPI PUSH2 0x1CFF PUSH2 0x182E JUMP JUMPDEST JUMPDEST PUSH0 PUSH2 0x1D0D DUP8 DUP3 DUP9 ADD PUSH2 0x1A5F JUMP JUMPDEST SWAP5 POP POP PUSH1 0x20 PUSH2 0x1D1E DUP8 DUP3 DUP9 ADD PUSH2 0x1A5F JUMP JUMPDEST SWAP4 POP POP PUSH1 0x40 PUSH2 0x1D2F DUP8 DUP3 DUP9 ADD PUSH2 0x19B2 JUMP JUMPDEST SWAP3 POP POP PUSH1 0x60 DUP6 ADD CALLDATALOAD PUSH8 0xFFFFFFFFFFFFFFFF DUP2 GT ISZERO PUSH2 0x1D50 JUMPI PUSH2 0x1D4F PUSH2 0x1832 JUMP JUMPDEST JUMPDEST PUSH2 0x1D5C DUP8 DUP3 DUP9 ADD PUSH2 0x1CBB JUMP JUMPDEST SWAP2 POP POP SWAP3 SWAP6 SWAP2 SWAP5 POP SWAP3 POP JUMP JUMPDEST PUSH0 DUP1 REVERT JUMPDEST PUSH0 DUP1 REVERT JUMPDEST PUSH0 DUP1 DUP4 PUSH1 0x1F DUP5 ADD SLT PUSH2 0x1D85 JUMPI PUSH2 0x1D84 PUSH2 0x1BBC JUMP JUMPDEST JUMPDEST DUP3 CALLDATALOAD SWAP1 POP PUSH8 0xFFFFFFFFFFFFFFFF DUP2 GT ISZERO PUSH2 0x1DA2 JUMPI PUSH2 0x1DA1 PUSH2 0x1D68 JUMP JUMPDEST JUMPDEST PUSH1 0x20 DUP4 ADD SWAP2 POP DUP4 PUSH1 0x1 DUP3 MUL DUP4 ADD GT ISZERO PUSH2 0x1DBE JUMPI PUSH2 0x1DBD PUSH2 0x1D6C JUMP JUMPDEST JUMPDEST SWAP3 POP SWAP3 SWAP1 POP JUMP JUMPDEST PUSH0 DUP1 PUSH1 0x20 DUP4 DUP6 SUB SLT ISZERO PUSH2 0x1DDB JUMPI PUSH2 0x1DDA PUSH2 0x182E JUMP JUMPDEST JUMPDEST PUSH0 DUP4 ADD CALLDATALOAD PUSH8 0xFFFFFFFFFFFFFFFF DUP2 GT ISZERO PUSH2 0x1DF8 JUMPI PUSH2 0x1DF7 PUSH2 0x1832 JUMP JUMPDEST JUMPDEST PUSH2 0x1E04 DUP6 DUP3 DUP7 ADD PUSH2 0x1D70 JUMP JUMPDEST SWAP3 POP SWAP3 POP POP SWAP3 POP SWAP3 SWAP1 POP JUMP JUMPDEST PUSH0 DUP1 PUSH1 0x40 DUP4 DUP6 SUB SLT ISZERO PUSH2 0x1E26 JUMPI PUSH2 0x1E25 PUSH2 0x182E JUMP JUMPDEST JUMPDEST PUSH0 PUSH2 0x1E33 DUP6 DUP3 DUP7 ADD PUSH2 0x1A5F JUMP JUMPDEST SWAP3 POP POP PUSH1 0x20 PUSH2 0x1E44 DUP6 DUP3 DUP7 ADD PUSH2 0x1A5F JUMP JUMPDEST SWAP2 POP POP SWAP3 POP SWAP3 SWAP1 POP JUMP JUMPDEST PUSH32 0x4E487B7100000000000000000000000000000000000000000000000000000000 PUSH0 MSTORE PUSH1 0x22 PUSH1 0x4 MSTORE PUSH1 0x24 PUSH0 REVERT JUMPDEST PUSH0 PUSH1 0x2 DUP3 DIV SWAP1 POP PUSH1 0x1 DUP3 AND DUP1 PUSH2 0x1E92 JUMPI PUSH1 0x7F DUP3 AND SWAP2 POP JUMPDEST PUSH1 0x20 DUP3 LT DUP2 SUB PUSH2 0x1EA5 JUMPI PUSH2 0x1EA4 PUSH2 0x1E4E JUMP JUMPDEST JUMPDEST POP SWAP2 SWAP1 POP JUMP JUMPDEST PUSH32 0x4E487B7100000000000000000000000000000000000000000000000000000000 PUSH0 MSTORE PUSH1 0x11 PUSH1 0x4 MSTORE PUSH1 0x24 PUSH0 REVERT JUMPDEST PUSH0 PUSH2 0x1EE2 DUP3 PUSH2 0x1993 JUMP JUMPDEST SWAP2 POP PUSH2 0x1EED DUP4 PUSH2 0x1993 JUMP JUMPDEST SWAP3 POP DUP3 DUP3 ADD SWAP1 POP DUP1 DUP3 GT ISZERO PUSH2 0x1F05 JUMPI PUSH2 0x1F04 PUSH2 0x1EAB JUMP JUMPDEST JUMPDEST SWAP3 SWAP2 POP POP JUMP JUMPDEST PUSH32 0x4D617820616D6F756E74206D696E746564000000000000000000000000000000 PUSH0 DUP3 ADD MSTORE POP JUMP JUMPDEST PUSH0 PUSH2 0x1F3F PUSH1 0x11 DUP4 PUSH2 0x18F3 JUMP JUMPDEST SWAP2 POP PUSH2 0x1F4A DUP3 PUSH2 0x1F0B JUMP JUMPDEST PUSH1 0x20 DUP3 ADD SWAP1 POP SWAP2 SWAP1 POP JUMP JUMPDEST PUSH0 PUSH1 0x20 DUP3 ADD SWAP1 POP DUP2 DUP2 SUB PUSH0 DUP4 ADD MSTORE PUSH2 0x1F6C DUP2 PUSH2 0x1F33 JUMP JUMPDEST SWAP1 POP SWAP2 SWAP1 POP JUMP JUMPDEST PUSH32 0x4D617820737570706C7920726561636865640000000000000000000000000000 PUSH0 DUP3 ADD MSTORE POP JUMP JUMPDEST PUSH0 PUSH2 0x1FA7 PUSH1 0x12 DUP4 PUSH2 0x18F3 JUMP JUMPDEST SWAP2 POP PUSH2 0x1FB2 DUP3 PUSH2 0x1F73 JUMP JUMPDEST PUSH1 0x20 DUP3 ADD SWAP1 POP SWAP2 SWAP1 POP JUMP JUMPDEST PUSH0 PUSH1 0x20 DUP3 ADD SWAP1 POP DUP2 DUP2 SUB PUSH0 DUP4 ADD MSTORE PUSH2 0x1FD4 DUP2 PUSH2 0x1F9B JUMP JUMPDEST SWAP1 POP SWAP2 SWAP1 POP JUMP JUMPDEST PUSH0 DUP3 SWAP1 POP SWAP3 SWAP2 POP POP JUMP JUMPDEST PUSH0 DUP2 SWAP1 POP DUP2 PUSH0 MSTORE PUSH1 0x20 PUSH0 KECCAK256 SWAP1 POP SWAP2 SWAP1 POP JUMP JUMPDEST PUSH0 PUSH1 0x20 PUSH1 0x1F DUP4 ADD DIV SWAP1 POP SWAP2 SWAP1 POP JUMP JUMPDEST PUSH0 DUP3 DUP3 SHL SWAP1 POP SWAP3 SWAP2 POP POP JUMP JUMPDEST PUSH0 PUSH1 0x8 DUP4 MUL PUSH2 0x2041 PUSH32 0xFFFFFFFFFFFFFFFFFFFFFFFFFFFFFFFFFFFFFFFFFFFFFFFFFFFFFFFFFFFFFFFF DUP3 PUSH2 0x2006 JUMP JUMPDEST PUSH2 0x204B DUP7 DUP4 PUSH2 0x2006 JUMP JUMPDEST SWAP6 POP DUP1 NOT DUP5 AND SWAP4 POP DUP1 DUP7 AND DUP5 OR SWAP3 POP POP POP SWAP4 SWAP3 POP POP POP JUMP JUMPDEST PUSH0 DUP2 SWAP1 POP SWAP2 SWAP1 POP JUMP JUMPDEST PUSH0 PUSH2 0x2086 PUSH2 0x2081 PUSH2 0x207C DUP5 PUSH2 0x1993 JUMP JUMPDEST PUSH2 0x2063 JUMP JUMPDEST PUSH2 0x1993 JUMP JUMPDEST SWAP1 POP SWAP2 SWAP1 POP JUMP JUMPDEST PUSH0 DUP2 SWAP1 POP SWAP2 SWAP1 POP JUMP JUMPDEST PUSH2 0x209F DUP4 PUSH2 0x206C JUMP JUMPDEST PUSH2 0x20B3 PUSH2 0x20AB DUP3 PUSH2 0x208D JUMP JUMPDEST DUP5 DUP5 SLOAD PUSH2 0x2012 JUMP JUMPDEST DUP3 SSTORE POP POP POP POP JUMP JUMPDEST PUSH0 SWAP1 JUMP JUMPDEST PUSH2 0x20C7 PUSH2 0x20BB JUMP JUMPDEST PUSH2 0x20D2 DUP2 DUP5 DUP5 PUSH2 0x2096 JUMP JUMPDEST POP POP POP JUMP JUMPDEST JUMPDEST DUP2 DUP2 LT ISZERO PUSH2 0x20F5 JUMPI PUSH2 0x20EA PUSH0 DUP3 PUSH2 0x20BF JUMP JUMPDEST PUSH1 0x1 DUP2 ADD SWAP1 POP PUSH2 0x20D8 JUMP JUMPDEST POP POP JUMP JUMPDEST PUSH1 0x1F DUP3 GT ISZERO PUSH2 0x213A JUMPI PUSH2 0x210B DUP2 PUSH2 0x1FE5 JUMP JUMPDEST PUSH2 0x2114 DUP5 PUSH2 0x1FF7 JUMP JUMPDEST DUP2 ADD PUSH1 0x20 DUP6 LT ISZERO PUSH2 0x2123 JUMPI DUP2 SWAP1 POP JUMPDEST PUSH2 0x2137 PUSH2 0x212F DUP6 PUSH2 0x1FF7 JUMP JUMPDEST DUP4 ADD DUP3 PUSH2 0x20D7 JUMP JUMPDEST POP POP JUMPDEST POP POP POP JUMP JUMPDEST PUSH0 DUP3 DUP3 SHR SWAP1 POP SWAP3 SWAP2 POP POP JUMP JUMPDEST PUSH0 PUSH2 0x215A PUSH0 NOT DUP5 PUSH1 0x8 MUL PUSH2 0x213F JUMP JUMPDEST NOT DUP1 DUP4 AND SWAP2 POP POP SWAP3 SWAP2 POP POP JUMP JUMPDEST PUSH0 PUSH2 0x2172 DUP4 DUP4 PUSH2 0x214B JUMP JUMPDEST SWAP2 POP DUP3 PUSH1 0x2 MUL DUP3 OR SWAP1 POP SWAP3 SWAP2 POP POP JUMP JUMPDEST PUSH2 0x218C DUP4 DUP4 PUSH2 0x1FDB JUMP JUMPDEST PUSH8 0xFFFFFFFFFFFFFFFF DUP2 GT ISZERO PUSH2 0x21A5 JUMPI PUSH2 0x21A4 PUSH2 0x1BC4 JUMP JUMPDEST JUMPDEST PUSH2 0x21AF DUP3 SLOAD PUSH2 0x1E7B JUMP JUMPDEST PUSH2 0x21BA DUP3 DUP3 DUP6 PUSH2 0x20F9 JUMP JUMPDEST PUSH0 PUSH1 0x1F DUP4 GT PUSH1 0x1 DUP2 EQ PUSH2 0x21E7 JUMPI PUSH0 DUP5 ISZERO PUSH2 0x21D5 JUMPI DUP3 DUP8 ADD CALLDATALOAD SWAP1 POP JUMPDEST PUSH2 0x21DF DUP6 DUP3 PUSH2 0x2167 JUMP JUMPDEST DUP7 SSTORE POP PUSH2 0x2246 JUMP JUMPDEST PUSH1 0x1F NOT DUP5 AND PUSH2 0x21F5 DUP7 PUSH2 0x1FE5 JUMP JUMPDEST PUSH0 JUMPDEST DUP3 DUP2 LT ISZERO PUSH2 0x221C JUMPI DUP5 DUP10 ADD CALLDATALOAD DUP3 SSTORE PUSH1 0x1 DUP3 ADD SWAP2 POP PUSH1 0x20 DUP6 ADD SWAP5 POP PUSH1 0x20 DUP2 ADD SWAP1 POP PUSH2 0x21F7 JUMP JUMPDEST DUP7 DUP4 LT ISZERO PUSH2 0x2239 JUMPI DUP5 DUP10 ADD CALLDATALOAD PUSH2 0x2235 PUSH1 0x1F DUP10 AND DUP3 PUSH2 0x214B JUMP JUMPDEST DUP4 SSTORE POP JUMPDEST PUSH1 0x1 PUSH1 0x2 DUP9 MUL ADD DUP9 SSTORE POP POP POP JUMPDEST POP POP POP POP POP POP POP JUMP JUMPDEST PUSH0 DUP2 SWAP1 POP SWAP3 SWAP2 POP POP JUMP JUMPDEST PUSH0 PUSH2 0x2263 DUP3 PUSH2 0x18E9 JUMP JUMPDEST PUSH2 0x226D DUP2 DUP6 PUSH2 0x224F JUMP JUMPDEST SWAP4 POP PUSH2 0x227D DUP2 DUP6 PUSH1 0x20 DUP7 ADD PUSH2 0x1903 JUMP JUMPDEST DUP1 DUP5 ADD SWAP2 POP POP SWAP3 SWAP2 POP POP JUMP JUMPDEST PUSH32 0x2E6A736F6E000000000000000000000000000000000000000000000000000000 PUSH0 DUP3 ADD MSTORE POP JUMP JUMPDEST PUSH0 PUSH2 0x22BD PUSH1 0x5 DUP4 PUSH2 0x224F JUMP JUMPDEST SWAP2 POP PUSH2 0x22C8 DUP3 PUSH2 0x2289 JUMP JUMPDEST PUSH1 0x5 DUP3 ADD SWAP1 POP SWAP2 SWAP1 POP JUMP JUMPDEST PUSH0 PUSH2 0x22DE DUP3 DUP6 PUSH2 0x2259 JUMP JUMPDEST SWAP2 POP PUSH2 0x22EA DUP3 DUP5 PUSH2 0x2259 JUMP JUMPDEST SWAP2 POP PUSH2 0x22F5 DUP3 PUSH2 0x22B1 JUMP JUMPDEST SWAP2 POP DUP2 SWAP1 POP SWAP4 SWAP3 POP POP POP JUMP JUMPDEST PUSH32 0x4F776E61626C653A206E6577206F776E657220697320746865207A65726F2061 PUSH0 DUP3 ADD MSTORE PUSH32 0x6464726573730000000000000000000000000000000000000000000000000000 PUSH1 0x20 DUP3 ADD MSTORE POP JUMP JUMPDEST PUSH0 PUSH2 0x235B PUSH1 0x26 DUP4 PUSH2 0x18F3 JUMP JUMPDEST SWAP2 POP PUSH2 0x2366 DUP3 PUSH2 0x2301 JUMP JUMPDEST PUSH1 0x40 DUP3 ADD SWAP1 POP SWAP2 SWAP1 POP JUMP JUMPDEST PUSH0 PUSH1 0x20 DUP3 ADD SWAP1 POP DUP2 DUP2 SUB PUSH0 DUP4 ADD MSTORE PUSH2 0x2388 DUP2 PUSH2 0x234F JUMP JUMPDEST SWAP1 POP SWAP2 SWAP1 POP JUMP JUMPDEST PUSH32 0x4F776E61626C653A2063616C6C6572206973206E6F7420746865206F776E6572 PUSH0 DUP3 ADD MSTORE POP JUMP JUMPDEST PUSH0 PUSH2 0x23C3 PUSH1 0x20 DUP4 PUSH2 0x18F3 JUMP JUMPDEST SWAP2 POP PUSH2 0x23CE DUP3 PUSH2 0x238F JUMP JUMPDEST PUSH1 0x20 DUP3 ADD SWAP1 POP SWAP2 SWAP1 POP JUMP JUMPDEST PUSH0 PUSH1 0x20 DUP3 ADD SWAP1 POP DUP2 DUP2 SUB PUSH0 DUP4 ADD MSTORE PUSH2 0x23F0 DUP2 PUSH2 0x23B7 JUMP JUMPDEST SWAP1 POP SWAP2 SWAP1 POP JUMP JUMPDEST PUSH0 DUP2 MLOAD SWAP1 POP SWAP2 SWAP1 POP JUMP JUMPDEST PUSH0 DUP3 DUP3 MSTORE PUSH1 0x20 DUP3 ADD SWAP1 POP SWAP3 SWAP2 POP POP JUMP JUMPDEST PUSH0 PUSH2 0x241B DUP3 PUSH2 0x23F7 JUMP JUMPDEST PUSH2 0x2425 DUP2 DUP6 PUSH2 0x2401 JUMP JUMPDEST SWAP4 POP PUSH2 0x2435 DUP2 DUP6 PUSH1 0x20 DUP7 ADD PUSH2 0x1903 JUMP JUMPDEST PUSH2 0x243E DUP2 PUSH2 0x192B JUMP JUMPDEST DUP5 ADD SWAP2 POP POP SWAP3 SWAP2 POP POP JUMP JUMPDEST PUSH0 PUSH1 0x80 DUP3 ADD SWAP1 POP PUSH2 0x245C PUSH0 DUP4 ADD DUP8 PUSH2 0x1A21 JUMP JUMPDEST PUSH2 0x2469 PUSH1 0x20 DUP4 ADD DUP7 PUSH2 0x1A21 JUMP JUMPDEST PUSH2 0x2476 PUSH1 0x40 DUP4 ADD DUP6 PUSH2 0x1AB1 JUMP JUMPDEST DUP2 DUP2 SUB PUSH1 0x60 DUP4 ADD MSTORE PUSH2 0x2488 DUP2 DUP5 PUSH2 0x2411 JUMP JUMPDEST SWAP1 POP SWAP6 SWAP5 POP POP POP POP POP JUMP JUMPDEST PUSH0 DUP2 MLOAD SWAP1 POP PUSH2 0x24A1 DUP2 PUSH2 0x1861 JUMP JUMPDEST SWAP3 SWAP2 POP POP JUMP JUMPDEST PUSH0 PUSH1 0x20 DUP3 DUP5 SUB SLT ISZERO PUSH2 0x24BC JUMPI PUSH2 0x24BB PUSH2 0x182E JUMP JUMPDEST JUMPDEST PUSH0 PUSH2 0x24C9 DUP5 DUP3 DUP6 ADD PUSH2 0x2493 JUMP JUMPDEST SWAP2 POP POP SWAP3 SWAP2 POP POP JUMP INVALID LOG2 PUSH5 0x6970667358 0x22 SLT KECCAK256 0xB6 0xCF 0xE7 0xD4 0xE0 RETURN SSTORE 0x29 INVALID INVALID PUSH26 0x91B60A1B6A3AEDE0C6E42A920B59700C3F6F143BBA64736F6C63 NUMBER STOP ADDMOD EQ STOP CALLER "
		},
		"gasEstimates": {
			"creation": {
				"codeDepositCost": "1896000",
				"executionCost": "infinite",
				"totalCost": "infinite"
			},
			"external": {
				"approve(address,uint256)": "infinite",
				"balanceOf(address)": "2981",
				"getApproved(uint256)": "7361",
				"isApprovedForAll(address,address)": "infinite",
				"mint(uint256)": "infinite",
				"name()": "infinite",
				"owner()": "2560",
				"ownerOf(uint256)": "infinite",
				"renounceOwnership()": "30413",
				"safeTransferFrom(address,address,uint256)": "infinite",
				"safeTransferFrom(address,address,uint256,bytes)": "infinite",
				"setApprovalForAll(address,bool)": "infinite",
				"supportsInterface(bytes4)": "736",
				"symbol()": "infinite",
				"tokenURI(uint256)": "infinite",
				"totalSupply()": "4592",
				"transferFrom(address,address,uint256)": "infinite",
				"transferOwnership(address)": "30841",
				"updateURI(string)": "infinite"
			},
			"internal": {
				"_baseURI()": "infinite"
			}
		},
		"methodIdentifiers": {
			"approve(address,uint256)": "095ea7b3",
			"balanceOf(address)": "70a08231",
			"getApproved(uint256)": "081812fc",
			"isApprovedForAll(address,address)": "e985e9c5",
			"mint(uint256)": "a0712d68",
			"name()": "06fdde03",
			"owner()": "8da5cb5b",
			"ownerOf(uint256)": "6352211e",
			"renounceOwnership()": "715018a6",
			"safeTransferFrom(address,address,uint256)": "42842e0e",
			"safeTransferFrom(address,address,uint256,bytes)": "b88d4fde",
			"setApprovalForAll(address,bool)": "a22cb465",
			"supportsInterface(bytes4)": "01ffc9a7",
			"symbol()": "95d89b41",
			"tokenURI(uint256)": "c87b56dd",
			"totalSupply()": "18160ddd",
			"transferFrom(address,address,uint256)": "23b872dd",
			"transferOwnership(address)": "f2fde38b",
			"updateURI(string)": "c30f4a5a"
		}
	},
	"abi": [
		{
			"inputs": [],
			"stateMutability": "nonpayable",
			"type": "constructor"
		},
		{
			"inputs": [],
			"name": "ApprovalCallerNotOwnerNorApproved",
			"type": "error"
		},
		{
			"inputs": [],
			"name": "ApprovalQueryForNonexistentToken",
			"type": "error"
		},
		{
			"inputs": [],
			"name": "BalanceQueryForZeroAddress",
			"type": "error"
		},
		{
			"inputs": [],
			"name": "MintERC2309QuantityExceedsLimit",
			"type": "error"
		},
		{
			"inputs": [],
			"name": "MintToZeroAddress",
			"type": "error"
		},
		{
			"inputs": [],
			"name": "MintZeroQuantity",
			"type": "error"
		},
		{
			"inputs": [],
			"name": "OwnerQueryForNonexistentToken",
			"type": "error"
		},
		{
			"inputs": [],
			"name": "OwnershipNotInitializedForExtraData",
			"type": "error"
		},
		{
			"inputs": [],
			"name": "TransferCallerNotOwnerNorApproved",
			"type": "error"
		},
		{
			"inputs": [],
			"name": "TransferFromIncorrectOwner",
			"type": "error"
		},
		{
			"inputs": [],
			"name": "TransferToNonERC721ReceiverImplementer",
			"type": "error"
		},
		{
			"inputs": [],
			"name": "TransferToZeroAddress",
			"type": "error"
		},
		{
			"inputs": [],
			"name": "URIQueryForNonexistentToken",
			"type": "error"
		},
		{
			"anonymous": false,
			"inputs": [
				{
					"indexed": true,
					"internalType": "address",
					"name": "owner",
					"type": "address"
				},
				{
					"indexed": true,
					"internalType": "address",
					"name": "approved",
					"type": "address"
				},
				{
					"indexed": true,
					"internalType": "uint256",
					"name": "tokenId",
					"type": "uint256"
				}
			],
			"name": "Approval",
			"type": "event"
		},
		{
			"anonymous": false,
			"inputs": [
				{
					"indexed": true,
					"internalType": "address",
					"name": "owner",
					"type": "address"
				},
				{
					"indexed": true,
					"internalType": "address",
					"name": "operator",
					"type": "address"
				},
				{
					"indexed": false,
					"internalType": "bool",
					"name": "approved",
					"type": "bool"
				}
			],
			"name": "ApprovalForAll",
			"type": "event"
		},
		{
			"anonymous": false,
			"inputs": [
				{
					"indexed": true,
					"internalType": "uint256",
					"name": "fromTokenId",
					"type": "uint256"
				},
				{
					"indexed": false,
					"internalType": "uint256",
					"name": "toTokenId",
					"type": "uint256"
				},
				{
					"indexed": true,
					"internalType": "address",
					"name": "from",
					"type": "address"
				},
				{
					"indexed": true,
					"internalType": "address",
					"name": "to",
					"type": "address"
				}
			],
			"name": "ConsecutiveTransfer",
			"type": "event"
		},
		{
			"anonymous": false,
			"inputs": [
				{
					"indexed": true,
					"internalType": "address",
					"name": "previousOwner",
					"type": "address"
				},
				{
					"indexed": true,
					"internalType": "address",
					"name": "newOwner",
					"type": "address"
				}
			],
			"name": "OwnershipTransferred",
			"type": "event"
		},
		{
			"anonymous": false,
			"inputs": [
				{
					"indexed": true,
					"internalType": "address",
					"name": "from",
					"type": "address"
				},
				{
					"indexed": true,
					"internalType": "address",
					"name": "to",
					"type": "address"
				},
				{
					"indexed": true,
					"internalType": "uint256",
					"name": "tokenId",
					"type": "uint256"
				}
			],
			"name": "Transfer",
			"type": "event"
		},
		{
			"inputs": [
				{
					"internalType": "address",
					"name": "to",
					"type": "address"
				},
				{
					"internalType": "uint256",
					"name": "tokenId",
					"type": "uint256"
				}
			],
			"name": "approve",
			"outputs": [],
			"stateMutability": "payable",
			"type": "function"
		},
		{
			"inputs": [
				{
					"internalType": "address",
					"name": "owner",
					"type": "address"
				}
			],
			"name": "balanceOf",
			"outputs": [
				{
					"internalType": "uint256",
					"name": "",
					"type": "uint256"
				}
			],
			"stateMutability": "view",
			"type": "function"
		},
		{
			"inputs": [
				{
					"internalType": "uint256",
					"name": "tokenId",
					"type": "uint256"
				}
			],
			"name": "getApproved",
			"outputs": [
				{
					"internalType": "address",
					"name": "",
					"type": "address"
				}
			],
			"stateMutability": "view",
			"type": "function"
		},
		{
			"inputs": [
				{
					"internalType": "address",
					"name": "owner",
					"type": "address"
				},
				{
					"internalType": "address",
					"name": "operator",
					"type": "address"
				}
			],
			"name": "isApprovedForAll",
			"outputs": [
				{
					"internalType": "bool",
					"name": "",
					"type": "bool"
				}
			],
			"stateMutability": "view",
			"type": "function"
		},
		{
			"inputs": [
				{
					"internalType": "uint256",
					"name": "quantity",
					"type": "uint256"
				}
			],
			"name": "mint",
			"outputs": [],
			"stateMutability": "payable",
			"type": "function"
		},
		{
			"inputs": [],
			"name": "name",
			"outputs": [
				{
					"internalType": "string",
					"name": "",
					"type": "string"
				}
			],
			"stateMutability": "view",
			"type": "function"
		},
		{
			"inputs": [],
			"name": "owner",
			"outputs": [
				{
					"internalType": "address",
					"name": "",
					"type": "address"
				}
			],
			"stateMutability": "view",
			"type": "function"
		},
		{
			"inputs": [
				{
					"internalType": "uint256",
					"name": "tokenId",
					"type": "uint256"
				}
			],
			"name": "ownerOf",
			"outputs": [
				{
					"internalType": "address",
					"name": "",
					"type": "address"
				}
			],
			"stateMutability": "view",
			"type": "function"
		},
		{
			"inputs": [],
			"name": "renounceOwnership",
			"outputs": [],
			"stateMutability": "nonpayable",
			"type": "function"
		},
		{
			"inputs": [
				{
					"internalType": "address",
					"name": "from",
					"type": "address"
				},
				{
					"internalType": "address",
					"name": "to",
					"type": "address"
				},
				{
					"internalType": "uint256",
					"name": "tokenId",
					"type": "uint256"
				}
			],
			"name": "safeTransferFrom",
			"outputs": [],
			"stateMutability": "payable",
			"type": "function"
		},
		{
			"inputs": [
				{
					"internalType": "address",
					"name": "from",
					"type": "address"
				},
				{
					"internalType": "address",
					"name": "to",
					"type": "address"
				},
				{
					"internalType": "uint256",
					"name": "tokenId",
					"type": "uint256"
				},
				{
					"internalType": "bytes",
					"name": "_data",
					"type": "bytes"
				}
			],
			"name": "safeTransferFrom",
			"outputs": [],
			"stateMutability": "payable",
			"type": "function"
		},
		{
			"inputs": [
				{
					"internalType": "address",
					"name": "operator",
					"type": "address"
				},
				{
					"internalType": "bool",
					"name": "approved",
					"type": "bool"
				}
			],
			"name": "setApprovalForAll",
			"outputs": [],
			"stateMutability": "nonpayable",
			"type": "function"
		},
		{
			"inputs": [
				{
					"internalType": "bytes4",
					"name": "interfaceId",
					"type": "bytes4"
				}
			],
			"name": "supportsInterface",
			"outputs": [
				{
					"internalType": "bool",
					"name": "",
					"type": "bool"
				}
			],
			"stateMutability": "view",
			"type": "function"
		},
		{
			"inputs": [],
			"name": "symbol",
			"outputs": [
				{
					"internalType": "string",
					"name": "",
					"type": "string"
				}
			],
			"stateMutability": "view",
			"type": "function"
		},
		{
			"inputs": [
				{
					"internalType": "uint256",
					"name": "tokenId",
					"type": "uint256"
				}
			],
			"name": "tokenURI",
			"outputs": [
				{
					"internalType": "string",
					"name": "",
					"type": "string"
				}
			],
			"stateMutability": "view",
			"type": "function"
		},
		{
			"inputs": [],
			"name": "totalSupply",
			"outputs": [
				{
					"internalType": "uint256",
					"name": "",
					"type": "uint256"
				}
			],
			"stateMutability": "view",
			"type": "function"
		},
		{
			"inputs": [
				{
					"internalType": "address",
					"name": "from",
					"type": "address"
				},
				{
					"internalType": "address",
					"name": "to",
					"type": "address"
				},
				{
					"internalType": "uint256",
					"name": "tokenId",
					"type": "uint256"
				}
			],
			"name": "transferFrom",
			"outputs": [],
			"stateMutability": "payable",
			"type": "function"
		},
		{
			"inputs": [
				{
					"internalType": "address",
					"name": "newOwner",
					"type": "address"
				}
			],
			"name": "transferOwnership",
			"outputs": [],
			"stateMutability": "nonpayable",
			"type": "function"
		},
		{
			"inputs": [
				{
					"internalType": "string",
					"name": "_URI",
					"type": "string"
				}
			],
			"name": "updateURI",
			"outputs": [],
			"stateMutability": "nonpayable",
			"type": "function"
		}
	]
}